:020000040800F2
:10000000400A0020D5000008DD000008DF000008DD
:10001000E1000008E3000008E5000008000000001F
:10002000000000000000000000000000E7000008E1
:10003000E900000800000000EB000008ED000008E7
:10004000EF000008EF000008EF00000800000000CB
:1000500000000000EF0000080D390008EF00000864
:10006000EF00000800000000EF000008EF000008AB
:10007000EF00000800000000C9350008EF0000088C
:10008000EF000008EF00000800000000EF0000088B
:10009000EF00000800000000000000000000000069
:1000A000000000000000000000000000EF00000859
:1000B000EF000008EF000008EF000008EF00000864
:1000C000DFF80CD000F0BEFB00480047913C000870
:1000D000400A00200648804706480047FEE7FEE742
:1000E000FEE7FEE7FEE7FEE7FEE7FEE7FEE7FEE7E8
:1000F00089340008C1000008F0B480EA0102D40F7E
:100100004200B2EB410F02D20246084611464A00B5
:1001100042D0C30DDDB2C1F3C752AD1A202D35DA7E
:10012000C1F3160141F4000204B15242C5F12006A8
:1001300002FA06F12A411044B3EBD05F23D0C4B1D8
:10014000012DA0EBC35009DCF0BC4FF0004202EAE5
:10015000C352DBB200F5000000F0E8BA400000F145
:10016000807000EBC350A0F1807040EAD17049006C
:1001700009E0490841EAC071A0EBC35000F5000056
:10018000400800EBC350F0BC00F0C7BA6142012246
:1001900002EB4101001BF6E7F0BC704781F0004123
:1001A000AAE780F00040A7E780EA010210B502F05C
:1001B0000043400022D04A001FD0010E01EB126123
:1001C000C0F35600C2F3560240F4000042F40002AD
:1001D000A0FB022000047F39140400D0401C50EA28
:1001E000124001D44000491EC2B20C0604EBD010EC
:1001F000401C4008802A02D003E0002010BD20F0FF
:100200000100002900DA0020184310BD30B480EA54
:10021000010202F0004530F0004221F0004013D00E
:1002200090B1C30DD40DC2F31601C0F31600E41A49
:1002300041F4000140F400027D34914201D3641C7A
:1002400000E04900002C02DA30BC002070474FF477
:1002500000000023914201D3891A034340084FEA6A
:100260004101F7D151B1914202D14FF0004105E077
:1002700002D24FF0010101E06FF0010103EBC45025
:10028000284430BC00F049BA2DE9FE4F804681EA8F
:100290000300C00F0C46009021F0004123F0004500
:1002A000B8EB0200A94105D24046214690461C46C3
:1002B0000B46024623F00040104347D0270DC7F3FA
:1002C0000A00C3F30A510290401A019040286BDAE9
:1002D000C3F3130040F4801B0098924620B1002322
:1002E000D2EB030A63EB0B0B01985946C0F14002B5
:1002F000504600F0F1F906460D4650465946019A1F
:1003000000F0F9F910EB08006141002487EA11526E
:1003100084EAE7731A4340D0009A62B3019A012A33
:100320004FEA075215DC001B61EB02014FF000425F
:1003300002EA0752CDE90042001C41F58011324625
:100340002B4600F030FA03B0BDE8F08F404621465E
:10035000F9E7001B61EB0201001C41F58013001856
:100360005B412018A2F5001747EB030140EAD57066
:10037000B6196D4111E06D084FEA360645EAC075C1
:100380004FEA0752001B61EB0201001C41F580118E
:1003900049084FEA30000019514132462B4603B05C
:1003A000BDE8F04F00F0F0B90098012240000023B2
:1003B000D0EB020263EBE073009821464FEAE07451
:1003C000B8EB000061EB0401E9E783F000435BE771
:1003D00081F0004158E72DE9FE4F81EA030404F063
:1003E000004421F0004100944FF0000B23F0004343
:1003F00050EA01045ED052EA03045BD0C3F30A540E
:10040000C1F30A552C44A4F2F3340194A0FB025426
:10041000C1F3130141F48011C3F3130343F48013B8
:1004200001FB024400FB034E840A970A44EA81540C
:1004300047EA8357A4FB076802958D0A05FB0785E9
:100440004FEA932C04FB0C542705029D4FEA0658F3
:1004500047EA1637B5EB08056EEB070C870E920ED0
:1004600047EA811742EA8312A7FB0201B6EB0B01B0
:1004700064EB00042B0D43EA0C335E1844EB1C5074
:10048000DA465146E7FB0201C5F313044FEA0B338A
:1004900043EA14534FEA0432019C43EA0603A4F1F1
:1004A0000C040294009CCDE900B400F07CF903B088
:1004B000BDE8F08F00200146F9E72DE9F04D81EA13
:1004C000030404F0004B21F0004514464FF0000AED
:1004D00023F0004150EA050220D054EA01021DD069
:1004E000C5F30A570246C5F31303C1F31300C1F362
:1004F0000A5640F4801543F48013A7EB0608101B3E
:10050000D64608F2FD3873EB050002D308F1010866
:1005100001E092185B41B8F1000F03DA00200146B8
:10052000BDE8F08D00204FF48011064684460EE0B1
:10053000171B73EB050705D3121B63EB050306437B
:100540004CEA010C49084FEA300092185B4150EA2E
:100550000107EDD152EA030012D082EA040083EAD7
:100560000501084305D0101BAB4106D20122002330
:1005700006E000224FF0004302E06FF0010253104A
:100580001AEB06004CEB085110EB0A0041EB0B0193
:10059000BDE8F04D00F0F8B8C10F80EAE070084403
:1005A000CA079623002100F0C1B896230022114605
:1005B00000F0BCB80EB5C10F80EAE0700844CA076D
:1005C000002140F233438DE80E000A460B4600F04E
:1005D000EAF803B000BD0EB540F2334102910021AC
:1005E000CDE900110A460B4600F0DDF803B000BD6E
:1005F00000F0004230F000400AD0C10D01F56071FA
:10060000C0F3160042EA0151C20840071143704787
:10061000002001467047000030B5041E71F100044F
:1006200004DB4FF00044404264EB0101141E73F1FF
:10063000000405DB1C464FF00043524263EB040309
:100640008B4208BF824230BD30B5041E71F10004F8
:1006500004DB4FF00044404264EB0101141E73F1CF
:10066000000405DB1C464FF00043524263EB0403D9
:10067000994208BF904230BD01F0004330B421F0F0
:10068000004150EA010206D00A0DA2F56072C1F3E2
:100690001301002A02DC30BC00207047440F44EAFA
:1006A000C104C100E01830BC00EBC25000F035B806
:1006B000002801DBC0F10040002901DBC1F100414D
:1006C00081427047002801DBC0F10040002901DBB6
:1006D000C1F1004188427047202A04DB203A00FA29
:1006E00002F1002070479140C2F1200320FA03F389
:1006F000194390407047202A06DBCB17203A41FA75
:1007000002F043EAE07306E041FA02F3D040C2F19E
:10071000200291400843194670470029A8BF70473E
:10072000401C490008BF20F00100704710B4B0FA27
:1007300080FC00FA0CF050EA010404BF10BC7047C2
:1007400049B1CCF1200421FA04F411FA0CF118BFDC
:10075000012121430843A3EB0C01CB1D4FEA0061AB
:100760004FEA102042BF002010BC704700EBC3507E
:1007700010440029A4BF10BC7047401C490008BFAA
:1007800020F0010010BC704710B5141E73F1000476
:1007900008DA401C41F1000192185B411A4301D173
:1007A00020F0010010BD2DE9F04D92469B4611B19D
:1007B000B1FA81F202E0B0FA80F220329046FFF7FF
:1007C0008BFF04460F4640EA0A0041EA0B015346FC
:1007D0005A46084313D0114653EA010019D0C8F114
:1007E0004002504600F040F805460E465046594635
:1007F0004246FFF771FF084305D0012004E0204680
:100800003946BDE8F08D0020054346EAE0762C43EA
:1008100037430A986305E40AA0EB08000022FD0AAA
:1008200044EA47540A3002D500200146E9E70105B1
:1008300010196941DDE9084500196941BDE8F04D2D
:10084000A2E70000064C074D06E0E06840F0010317
:1008500094E8070098471034AC42F6D3FFF734FC15
:100860000842000828420008202A04DB203A21FA26
:1008700002F00021704721FA02F3D040C2F12002B9
:1008800091400843194670470146054A106811B166
:1008900040F0010001E020F00100014A10607047C3
:1008A00000800840014880697047000000800840CF
:1008B0000148006A704700000080084010B5144BE2
:1008C0001A68144B1A40037844782344448823441C
:1008D000047903EB041384892344448A2344C48A9F
:1008E0002344047E03EB44631A44094B596821F402
:1008F0000031037D01EB4341C389054C2361038A29
:10090000A3608368A36223461A60596010BD00008B
:10091000008008400300FFF10348006840F0020037
:1009200001490860704700000080084070B5044627
:100930004A48006820F4F870484908600846006892
:100940002178084345490860FFF7E6FF00BFFFF73D
:10095000AFFF00F004000028F9D0FFF7A3FF81B239
:10096000228DA01C20F81210228D30F81200A169EF
:100970000844A0613A480068BF2836D10A21A0691E
:10098000B0FBF1F0A083207810B1207810281BD1A3
:100990003448808BA18B88420ADAA18B314A928B32
:1009A000881AFFF7F9FD0546616AFFF7FDFB09E0CC
:1009B0002C49898BA28B881AFFF7EEFD0546616AE8
:1009C000FFF7F2FB206207E0A08BFFF7EEFD054684
:1009D000616AFFF7E9FB206220780111012088405D
:1009E00021490968084320490860208D092809D158
:1009F00020780111012088401949096808431849E5
:100A0000086004E016480068004315490860208D1E
:100A1000092804D16188A069401AA06107E0208DEF
:100A2000401CA11C31F81000A269101AA061208D91
:100A3000092802D10020608005E00022208D401CA2
:100A4000A11C21F81020208D092802D1002020852A
:100A500002E0208D401C208570BD00000080084011
:100A60001C000020580100202000002010B5D0E913
:100A7000023423440469234444691919047903683E
:100A800003EB0473048B03EB44531944044A054BF2
:100A90001A43054B1B6893430B44034C236010BD62
:100AA00000001EF00000E101008008402DE9F04147
:100AB000044600255648016A2046FFF76FFB0646AC
:100AC0002146FFF7A3FB804600214046FFF7F0FDDB
:100AD00004D250494046FFF767FB00E0404680469D
:100AE0004046FFF785FD064600224B4BFFF7ACFD65
:100AF00001D2322554E04046FFF77AFD06464FF01A
:100B00003332464BFFF7A0FD0AD24046FFF770FD97
:100B100006460022404BFFF77FFD01D81E253FE02F
:100B20004046FFF765FD06464FF033323C4BFFF77A
:100B30008BFD0BD24046FFF75BFD06464FF033328C
:100B4000364BFFF769FD01D80F2529E04046FFF736
:100B50004FFD0646334A344BFFF776FD0BD2404635
:100B6000FFF746FD06464FF033322D4BFFF754FD9D
:100B700001D8072514E04046FFF73AFD06462B4A08
:100B80002B4BFFF761FD0AD24046FFF731FD0646C9
:100B9000244A254BFFF740FD01D8012500E0002540
:100BA0001B48016A2046FFF783FD14D22148006BE1
:100BB0002844204908630846006BB0F5805F02DBDB
:100BC00040F6FF7001E01B48006B1A490863086B90
:100BD00000F09CFF11E01748006B401B15490863AB
:100BE0000846006B002801DA002001E01148006B84
:100BF00010490863086B00F089FF80210E4801F05E
:100C0000AFFF40210C4801F0B9FFBDE8F0810000C2
:100C1000A8000020000080BF0000E03F3333D33F36
:100C20003333C33F9A9999999999A93FFA7E6ABC3F
:100C30007493683F1002002000800C4010B5012022
:100C40005449087100BF534840790128FBD1002066
:100C500050494871504801F077FF00F0F0004F49CB
:100C600008600846006800F00F0111BB0011801FEA
:100C70000A2837D2DFE800F028231E19140F0A05CE
:100C80002D3241F29410454988802BE041F28830A2
:100C90004249888026E041F2A8604049888021E0EE
:100CA0004FF4E1503D4988801CE042F228303B4936
:100CB000888017E042F6E0603849888012E044F20C
:100CC0005060364988800DE046F290503349888064
:100CD00008E0334880883149888003E001202F49AB
:100CE000888000BF00BF01202A49087100BF294841
:100CF00040790128FBD1002026494871264801F09F
:100D000023FF00F00F002549886008468068801F97
:100D10000A283DD2DFE800F0211D1915110D090543
:100D2000302520491D48416132E01F491B4841617F
:100D30002EE01E49194841612AE01D4917484161CA
:100D400026E01C491548416122E01B4913484161D6
:100D50001EE01A49114841611AE019490F484161E2
:100D600016E000210D48416100200C49C8600021B7
:100D70000A48417401740BE00948816807484161E1
:100D800000200649C860002104484174017400BF76
:100D900000BF10BDEC01002000800A4010020020BE
:100DA00074050020B01E0400603D080020B8180043
:100DB000E0322900C0655200A0987B0080CBA400DF
:100DC0004031F70030B502460B464FF6FF7010E099
:100DD00012F8014B6040002109E000F0010424B149
:100DE0004AF2010484EA500000E04008491C082946
:100DF000F3DB1C1EA3F10105EBB2E9D130BD00000D
:100E00002DE9FC5F5F498888FFF7E5FB04460D4646
:100E10005C498988A1F5B050A838FFF7CBFB804624
:100E2000594A5A4BFFF7D7FA064622462B46FFF798
:100E300044FB8246544A554BFFF7CAFACDE90001FC
:100E4000FFF71AFC4F49C1F838020A46D2F83812A7
:100E50004F4A106AFFF7A8F904464E48016A204637
:100E6000FFF74AF94749C1F83C02D1F83C02FFF7C5
:100E7000BFFB04464FF06632474BFFF7CDFB0BD864
:100E8000464840494863012081F838000020444921
:100E900008700F20487073E03A49D1F83C02FFF720
:100EA000A7FB044600223F4BFFF7CEFB14D2354987
:100EB000D1F83C02FFF79CFB04464FF066323A4BF8
:100EC000FFF7AAFB08D839482E4948630020344967
:100ED00008700F20487053E02A49D1F83C02FFF710
:100EE00087FB04460022324BFFF7AEFB14D22549A4
:100EF000D1F83C02FFF77CFB04464FF066322D4BE5
:100F0000FFF78AFB08D82C481E4948630020244973
:100F10000870FF20487033E01A49D1F83C02FFF70F
:100F200067FB04460022254BFFF78EFB14D21549C0
:100F3000D1F83C02FFF75CFB04464FF09932204B9E
:100F4000FFF76AFB08D81F480E494863022014497E
:100F50000870FF20487013E00A49D1F83C02FFF7FF
:100F600047FB04464FF03332174BFFF76DFB07D2B8
:100F7000164804494863012009490870FF20487059
:100F8000BDE8FC9F10020020FED478E92631C83F5E
:100F9000A800002000010020666636400000904056
:100FA000440000200080364066E636400000704174
:100FB0000000374066E6374000000C420000384031
:100FC000999938400000824233B338400000B4425F
:100FD00010B525484079012804D0244890F84702EC
:100FE000002839D18021224801F0C8FD4021204845
:100FF00001F0B6FD01201F49087100BF1D480079AE
:101000000028FBD11C49086A1C49FFF751FB01D39A
:10101000012000E00020154981F847020020154911
:10102000487111494871114890F84702012807D1C9
:1010300080210F4801F094FD40210D4801F09EFDF4
:1010400001200F49087100BF0D4800790028FBD12D
:10105000064890F8470210BD012003490871034873
:1010600090F84702F7E70000D401002010020020AA
:1010700000800C40E00100200001002000009841A9
:10108000F801002010B500F0B1FD00F002000228C8
:101090000CD0094800F00EFD0748203890F82500D4
:1010A000012808D104492039487704E0002002498A
:1010B00020394877086210BD7C0400202DE9F05FDC
:1010C0000020FB490870C5E2F9480078142820D2B6
:1010D000DFE800F00A205C72AED9FCFBFAF9F8F701
:1010E000F6F5F4F3F2F1F0EFF24890F83402032849
:1010F0000BD00120F049087100BFEF4800790028AB
:10110000FBD10320EB4981F83402EC480078EC492C
:10111000087099E2E74890F8340203280BD00120C8
:10112000E549087100BFE44800790028FBD103209D
:10113000E04981F83402E2484078D0B9E149486A90
:10114000FFF756FA8046E04AE04BFFF79DF8044669
:101150000D46DF49086AFFF74BFA064622462B4642
:10116000FFF772FA01D2012000E00020D449487054
:101170000BE0D44A516AD64A106AFFF7A3FA01D2AB
:10118000012000E00020CE4948705DE2C94890F897
:10119000340203280BD00120C749087100BFC6489C
:1011A00000790028FBD10320C24981F83402C948E4
:1011B0000078C349887047E2BE4890F8340203289B
:1011C0000BD00120BC49087100BFBB480079002842
:1011D000FBD10320B74981F83402B948C078D0B9AF
:1011E000B8494868FFF704FA0646B74AB74BFFF715
:1011F0004BF804460D46B849086AFFF7F9F98046EE
:1012000022462B46FFF720FA01D2012000E0002001
:10121000AB49C8700BE0AB4A5168AF4A106AFFF7A0
:1012200051FA01D2012000E00020A549C8700BE26C
:10123000A348007960B9A34A1169A84A106AFFF768
:1012400037FA01D2012000E000209D49087119E021
:101250009C490869FFF7CCF906469B4A9B4BFFF770
:1012600013F804460D469D49086AFFF7C1F9804608
:1012700022462B46FFF7D0F901D2012000E00020E2
:101280008F490871E0E18E48407948BB8D49486933
:10129000FFF7AEF980468C4A8C4BFEF7F5FF04460B
:1012A0000D468E49086AFFF7A3F9064622462B46EB
:1012B0000DE0C8E1C6E1C4E1BAE1ADE19BE190E136
:1012C00083E15DE1E3E070E062E023E015E0FFF739
:1012D000BBF901D2012000E00020794948710BE000
:1012E000784A51697D4A106AFFF7ECF901D2012072
:1012F00000E0002072494871A6E1794A1168794AF4
:10130000106AFFF7D5F901D2012000E000206C49F6
:10131000887199E16A48C079D0B971494868FFF786
:1013200067F90646684A704BFFF755F804460D46C4
:101330006C49086AFFF75CF9804622462B46FFF7A6
:1013400083F901D2012000E000205D49C8711EE050
:1013500063494868FFF74CF906465B4A624BFFF762
:101360003AF80446584A594BFFF72FF88046894609
:101370005C49086AFFF73CF9824642464B46FFF754
:1013800063F901D2012000E000204D49C8715BE102
:10139000534A1169554A106AFFF78AF901D20120B0
:1013A00000E00020464908724EE151480078D0B96B
:1013B0004B494869FFF71CF90646434A4A4BFFF779
:1013C0000AF804460D464949086AFFF711F98046B4
:1013D00022462B46FFF738F905D2012038494872DA
:1013E0000121344801774248007804280DD13C4A55
:1013F00051693E4A106AFFF75BF906D22D48007F1B
:1014000018B900202E49487240E039480078012878
:101410003CD12848007FC8BB3149C869FFF7E8F8CC
:101420008046294A304BFEF7D6FF04460D462F4929
:10143000086AFFF7DDF8064622462B46FFF704F957
:1014400003D201201E49487220E01A4890F8480251
:10145000E0B90020174981F83602084690F83602B4
:1014600017494872234800684FF6E071084040F47D
:1014700080702049086001200E4981F848020E4919
:10148000087100BF0C4800790028FBD1DCE0184847
:10149000007860B90A48807A80BB174A1169054A0A
:1014A000D2F84002FFF704F929D2012028E03EE0FB
:1014B0000300002010020020F8010020C8010020D5
:1014C00030000020E00400209A9999999999B93F39
:1014D0002C010020BC010020D400002000010020CD
:1014E000B00400207C0000209999F13FA800002062
:1014F0000000002000000B401005002003E0002049
:10150000FE4988723BE0FE4908694FF07E51FEF7C4
:10151000F3FD0446FB48D0F840122046FFF7C8F818
:1015200001D2012000E00020F449887227E0F6484B
:101530000078012823D1F148807A68B9F04A91698E
:10154000F04AD2F84002FFF7B3F801D2012000E0E0
:101550000020EA49887212E0E94988694FF07E511B
:10156000FEF7CAFD0446E748D0F840122046FFF7D0
:101570009FF801D2012000E00020E049887263E07A
:10158000DE48C07A68B9DE4A5169DE4AD2F84002C4
:10159000FFF798F801D2012000E00020D749C87277
:1015A00012E0D74948694FF07E51FEF7F7FD044637
:1015B000D448D0F840122046FFF77AF801D2012033
:1015C00000E00020CD49C8723EE04021CF4801F044
:1015D000BEFA0446012C00D100E00020C749087380
:1015E00032E0C8488088012801D0012000E00020B6
:1015F000C249487328E0C448007818B1C24800784E
:10160000042808D1FFF7E4FC012801D0012000E004
:101610000020BA49887317E0BA49486BBC49FFF704
:1016200047F801D8012000E00020B449C8730BE05E
:10163000B448407C012800D100E00020AF49087484
:1016400002E001E000E000BF00BFB2480078401CAB
:10165000B0490870AF48007813287FF735ADAA4825
:101660000078E8BBA548007818B1A4488078012824
:1016700003D10120A4490870A3E1A048007B10B168
:101680009E48407B18B902209F49087099E19B4809
:101690004078F0B99948C078D8B998484079C0B92D
:1016A00096488079A8B99548C07990B99348407A0E
:1016B00078B99248807B60B99048807A48B98F4861
:1016C000C07A30B98D48407C18B98C48807C00289D
:1016D000D2D004208C49087000208F49087070E136
:1016E000FFE789480078012841D184480078012823
:1016F00006D18248407818B900208349087060E11B
:101700007E48007B10B17D48407B18B902207E499D
:10171000087056E179480079012807D07748C07BE6
:10172000012803D07548007C012803D103207649A5
:10173000087046E17148407890B97048C07878B92F
:101740006E48407960B96D48007A48B96B48407A74
:1017500030B96A48807A18B96848C07A00288BD0B6
:1017600004206949087001206B49087029E1664826
:10177000007802283BD16148007801280ED15F48EB
:10178000407858B95D48007B012807D15B48407B11
:10179000012803D100205C49087012E15748007805
:1017A00018B15648807801280AD15448007B012896
:1017B00006D15248407B012802D15349087000E10C
:1017C0004E48407860B94D48C07848B94B48407998
:1017D00030B94A48807918B94848C079002805D0FE
:1017E00004204949087002204B490870E9E0464846
:1017F000007803283CD141480078012812D13F48A5
:10180000407878B93D48807960B93C48C07948B99A
:101810003A48807A30B93948C07A18B900203A4934
:101820000870CEE03548007B10B13448407B18B9D1
:10183000022035490870C4E03048407888B92F4804
:10184000C07870B92D48407958B92C48807A40B991
:101850002A48C07A28B92948407C10B92748807C9A
:1018600080B304202849087003202B490870A8E0A1
:1018700025480078042825D12748007858BB1F4800
:101880004078E8B91D48C078D0B91C484079B8B94B
:101890001A488079A0B91948C07988B91748407AA0
:1018A00070B91648807B58B91448807A40B91348FB
:1018B000C07A28B91148407C10B91048807C10B11A
:1018C000012001E006E0002001287AD012480078CB
:1018D0000D49087075E010480078012832D107489A
:1018E000407828BB0548C07810BB04484079F8B957
:1018F0000248C07CE0B90148007A0FE030000020C7
:1019000010050020100200200000002000000C4004
:101910000000A040030000200100002040B92A4838
:10192000407A28B92848807A10B92748C07A08B187
:10193000012000E00020012843D0244800782449F9
:1019400008703EE021480078022818D11E484078EF
:1019500058B91D48C07840B91B48407928B91A4881
:10196000807910B91848C07908B1012000E0002042
:10197000012826D0154800781549087021E0134841
:10198000007803281DD11048407888B90E48C078E7
:1019900070B90D48407958B90B48807A40B90A4867
:1019A000C07A28B90848407C10B90748807C08B143
:1019B000012000E00020012803D0044800780449F9
:1019C0000870BDE8F09F00003000002001000020FA
:1019D000000000202DE9FC478246894649465046D2
:1019E000FEF766FE01D8012500E000252D4950468E
:1019F000FEF75EFE01D2012000E0002005400DB19F
:101A000054462AE049465046FEF75CFE01D20125C5
:101A100000E0002523494846FEF74AFE01D2012096
:101A200000E0002005402DB14C4601201E4981F800
:101A3000350212E01B495046FEF744FE01D801254D
:101A400000E0002517494846FEF73CFE01D801207A
:101A500000E00020054005B1124C134890F8350213
:101A600001281CD14846FEF7C3FD07460F4A104B1C
:101A7000FEF7ABFC05460E462046FEF7B9FD2A46AA
:101A80003346CDE90001FEF7C7FD08D200214846E4
:101A9000FEF718FE03D20020034981F835022046E4
:101AA000BDE8FC8700004040100200209A999999F7
:101AB0009999B93F017901290ED10168491C01604A
:101AC0000021417182680168914205D300210160C3
:101AD0000121417100210171704700000146054A52
:101AE000106811B140F0080001E020F00800014A40
:101AF00010607047000009400146034A106820F05A
:101B000002000844106070470000094001498860E5
:101B1000704700000000094010B500F083F8042869
:101B200000D110BD00F078FE042800D1F9E700F0E4
:101B3000FDFDCC2000F0CEFE042800D1F1E74420CA
:101B400000F0C8FE042800D1EBE700F065FE042891
:101B500000D1E6E700F0EAFDCC2000F0BBFE04284F
:101B600000D1DEE7BE2000F0B5FE042800D1D8E7A2
:101B700000F096F8042800D1D3E700F091F804288B
:101B800000D1CEE70520CCE710B5034600F022F8DF
:101B90001840984201D1012400E00024204610BDE5
:101BA0000146054A906811B140F0800001E020F044
:101BB0008000014A90607047000005400020044901
:101BC00088600861012088610020086048607047D3
:101BD0000000054004498969034A126941EA02206C
:101BE000C14340EA01407047000005400148C06819
:101BF000C0B270470000054010B5094B99680379E1
:101C000003F0200313B141F0200101E021F0200195
:101C1000034B996002681A60130A014C636010BD9F
:101C20000000054010B50021322000F0E5F807E083
:101C3000012119480175407D012801D1042010BD02
:101C40001648FFF7A1FF0028F2D0002012490861D2
:101C5000002111484175017501F0C8FFF02000F026
:101C6000D5F807E001210C480175407D012801D11C
:101C70000420E4E70948FFF787FF0028F2D000209E
:101C800005490861002104484175017500F0C6F856
:101C900001F0ACFF0520D2E788040020004030A20C
:101CA00010B50021322000F0A7F807E001214F48CD
:101CB0000175407D012801D1042010BD4C48FFF77B
:101CC00063FF0028F2D000204849086100214748FE
:101CD00041750175962000F099F807E0012143480D
:101CE0000175407D012801D10420E6E74048FFF757
:101CF0004BFF0028F2D000203C49086100213B48FE
:101D00004175017500F08AF801F070FF0021322062
:101D100000F072F807E0012134480175407D012888
:101D200001D10420C9E73248FFF72EFF0028F2D086
:101D300000202E49086100212C4841750175E120E1
:101D400000F064F807E0012128480175407D012872
:101D500001D10420B1E72648FFF716FF0028F2D092
:101D60000020224908610021204841750175E120C9
:101D700000F04CF807E001211C480175407D012866
:101D800001D1042099E71A48FFF7FEFE0028F2D09F
:101D90000020164908610021144841750175012190
:101DA000332000F029F807E0012110480175407D3B
:101DB000012801D1042080E70D48FFF7E5FE002847
:101DC000F2D00020094908610021084841750175D9
:101DD000082000F029F801F009FF064801F0EAF9AF
:101DE00000F01CF801F002FF052066E788040020DF
:101DF000004030A25C04002020F001020A43024BA4
:101E00005A6190229A61704700000540024948617A
:101E10001021014A916170470000054040200149AE
:101E2000886170470000054040F02001014A91613F
:101E3000704700000000054010B501F0D5FF01F02B
:101E400055FF01F06DFE02F039F901F0AFFE01F02F
:101E5000DBFE02F065F901F0F7FF10BD19490968D2
:101E600082691143174A11604178037A01229A402E
:101E70001140194101290AD112490968037800F17A
:101E80000C0252F8232011400E4A116005E00D4962
:101E90000968826911430B4A116040F2654241684A
:101EA00091420BD100214160017A072902D1002122
:101EB000017206E0017A491C017202E04168491C86
:101EC0004160704700800E402DE9FE4FF8480078D1
:101ED00005287DD2DFE810F005008502F4024503F5
:101EE000890301F0BDFC0290F24A116AF24A106ABD
:101EF000FEF75AF905460298FEF74EFB06462946BC
:101F0000FEF74CF90446ED48016A2046FEF77EF9DB
:101F100001900020EA49C8600021E9484174017439
:101F20000020E74981F83602E648006840F21F11B8
:101F30008843E44908600021E14880F84812802184
:101F4000E14800F00DFE4021DF4800F017FEDC48BC
:101F500090F83502012804D1DC490870AA204870A5
:101F600004E00121D9480170FF214170D84801F0F7
:101F700075F8D84801F072F8D74801F06FF8D748E3
:101F80000078052847D2DFE800F0034792DFFD0024
:101F9000CB498888FEF71FFB8046D14AD14BFEF71C
:101FA0001AFA06460022D04BFEF787FA0446FEF7DF
:101FB00063FB8246CD488168CD48FEF7EFF800907C
:101FC000FEF716FB8046C64AC64BFEF704FA00E051
:101FD00006E206460022C74BFEF756F90446FEF716
:101FE0004BFB8346B549086A5946FEF76BFB03D2A3
:101FF0000120BA49087006E050460199FFF7EAFC53
:102000000446FEF753FDBC48AD4948630020BB4978
:1020100008700F204870E2E1A9498888FEF7DBFAD2
:102020008046B74AB74BFEF7D6F906460022AE4BBC
:10203000FEF743FA0446FEF71FFB8246AB48816871
:10204000AB48FEF7ABF80090FEF7D2FA8046A44A00
:10205000A44BFEF7C0F90646AB4AAC4BFEF714F9A9
:102060000446FEF709FB83469449086A5946FEF781
:1020700029FB0CD2924890F83800012803D10320A4
:10208000964908700AE002209449087006E050461C
:102090000199FFF79FFC0446FEF708FD9C4888491C
:1020A0004863002095490870FF20487097E18449F3
:1020B0008888FEF790FA0646964A974BFEF78BF90A
:1020C00080460022884BFEF7F8F90446FEF7D4FA62
:1020D00082469249086A5146FEF7EAFA03D2042082
:1020E0007E49087027E08D49086A0199FEF7EAFAEF
:1020F00007D28B480199FFF76DFC0446FEF7D6FC2A
:1021000019E07A4881687A48FEF748F80090FEF7AF
:102110006FFA8046724A734BFEF75DF90646814AB4
:10212000814BFEF7B1F80446FEF7A6FA83465846FF
:1021300001F092F800BF7D486149486302206F4971
:102140000870FF2048704AE1684881686848FEF7D7
:1021500025F88346FEF74CFA8046614A614BFEF74C
:102160003AF90646724A734BFEF78EF80446FEF7BC
:1021700083FA8246504601F06FF8514890F82102E8
:10218000012800E0ECE076D101214D4880F82C12C6
:102190006248016A4A48D0F828223C3040F82210B0
:1021A000474AD16BD2F82832024652F82300FDF795
:1021B000F5FF05464248C16B2846FEF727F804465E
:1021C00000212046FEF774FA04D25B492046FDF751
:1021D000EBFF00E0204604462046FEF709FA0546DC
:1021E000474A564BFEF730FA17D2002008E0344930
:1021F0003C31421C51F8222041F82020411C88B279
:102200002F49D1F828128142F1DC00212C48D0F866
:1022100028223C3040F8221021E04948FFF74AFCD0
:10222000274890F82D02012819D10020244981F86F
:10223000380000212248C0F8281280F82D1280F8BA
:102240002C12002006E000221D493C3141F82020DC
:10225000411C88B27828F6DB042020490870002150
:102260001748C0F81C1280F8211280F820120121B2
:1022700080F8201200BF2D481149486302201F49F1
:102280000870FF2048700E49D1F840022D49FEF732
:1022900019FA64D200200A4981F838000021084860
:1022A000C0F8281280F82D1280F82C12002051E07E
:1022B00000000020D40000207C000020000100204D
:1022C0001002002000000B4000800C406000002045
:1022D000040000200C000020140000200200002058
:1022E000B81E85EB51B89E3F00408F405C04002033
:1022F0000000C8410000344000007041440000204C
:102300009A9999999999C93FF5285C8FC2753C4073
:1023100000000C427B14AE47E17AA43FA8000020E5
:10232000000040408FC2F5285C8F3C400000824294
:10233000CDCCCCCCCCCC3C40000080BF9999B93FEF
:1023400038040020000034420022E34941F82020F4
:10235000411C88B27828F7DB0420E04908703EE091
:10236000DF49086A0199FEF7ADF907D2DD48019906
:10237000FFF730FB0446FEF799FB19E0DA48816865
:10238000DA48FDF70BFF8346FEF732F98046D84A5C
:10239000D84BFEF720F80646D74AD84BFDF774FF16
:1023A0000446FEF769F98246504600F055FF00BF2B
:1023B0000020C9493C3981F8380048620021C648EC
:1023C0003C3880F8291080F82810CD48C2493C39A3
:1023D00048630120CB490870FF20487000BF00BF50
:1023E00076E18021C84800F0C9FB4021C64800F0D2
:1023F000B7FB0020B949087040F6FF70B6493C3978
:1024000008630146B44A3C3A08461163FFF77EFB75
:10241000B1483C3890F8290001280FD10020AE497E
:102420003C3948620021AC483C3880F8291080F8DB
:1024300028100120A8493C3981F83800A6483C38CA
:1024400090F83602F0B9A4483C3890F84802C8B970
:10245000AE4800684FF6E071084040F48070AB4928
:10246000086001209C493C3981F84802A84908715C
:1024700000BFA74800790028FBD10220A5490870B9
:10248000FF20487094483C38406920B101219248AF
:102490003C38017408E000208F493C39C8600021B5
:1024A0008D483C38417401749B4800F0D7FD9B482F
:1024B00000F0D4FD9A4800F0D1FDFEF7A1FC07E141
:1024C0008021914800F05AFB40218F4800F048FBE2
:1024D00000208249087040F6FF707F493C3908634C
:1024E00001467D4A3C3A08461163FFF70FFB002086
:1024F00079493C39C860002177483C3841740174FF
:10250000002075493C3981F836028048006840F265
:102510001F1188437D49086000206F493C3981F8CC
:102520004802012081F838000220764908700F2007
:1025300048707C48007828B9002076490870FF2050
:10254000487004E00220734908700F2048707248F8
:1025500000F084FD714800F081FD714800F07EFDBF
:10256000B6E08021684800F009FB4021664800F091
:10257000F7FA00205949087040F6FF7056493C3977
:1025800008630146544A3C3A08461163FFF7BEFA15
:10259000002051493C39C86000214F483C38417403
:1025A000017400204C493C3981F8360257480068D4
:1025B00040F21F11884355490860002046493C39C4
:1025C00081F848024F4908700F2048700020514997
:1025D00008700F204870504800F040FD4F4800F050
:1025E0003DFD4F4800F03AFD72E08021464800F082
:1025F000C5FA4021444800F0B3FA0020374908707A
:1026000040F6FF7034493C3908630146324A3C3A8F
:1026100008461163FFF77AFA00202F493C39C86059
:1026200000212D483C384174017400202A493C396E
:1026300081F836023548006840F21F11884333495B
:102640000860002024493C3981F84802314908706B
:10265000FF204870304800F001FD304800F0FEFCDB
:102660002F4800F0FBFC3048807B28B92E48407C86
:1026700010B92D48807C18B101202249087048709B
:102680002948807A10B92848C07A20B100201D4915
:1026900008700F2048702448807928B92248C079F2
:1026A00010B92148407A20B1022016490870CC2088
:1026B00048701D48407828B91B48C07810B91A489E
:1026C000407920B100200F490870AA20487000BF4F
:1026D00000BFBDE8FE8F00004C0200200200002079
:1026E000A8000020000040405C0400200000C84119
:1026F0007B14AE47E17A943F3D0AD7A3703D3B403F
:102700000000B4424400002000800C4000000B4058
:10271000F801002060000020040000200C000020D0
:1027200014000020C80100203000002010B5002156
:102730003220FFF761FB07E0012135480175407D3C
:10274000012801D1042010BD3248FFF71DFA0028EE
:10275000F2D000202E49086100212D4841750175F5
:10276000E120FFF753FB07E0012129480175407D77
:10277000012801D10420E6E72648FFF705FA0028E2
:10278000F2D00020224908610021214841750175DD
:10279000F020FFF73BFB07E001211D480175407D5C
:1027A000012801D10420CEE71A48FFF7EDF90028EF
:1027B000F2D00020164908610021154841750175C5
:1027C00001213320FFF718FB07E0012110480175B4
:1027D000407D012801D10420B5E70E48FFF7D4F968
:1027E0000028F2D000200A490861002108484175FC
:1027F000017501F0FBF90820FFF716FB01F0F6F96F
:10280000FEF740FCFFF70AFB01F0F0F905209AE71C
:1028100088040020004030A210B500213220FFF7CC
:10282000EBFA07E0012129480175407D012801D11B
:10283000042010BD2648FFF7A7F90028F2D0002099
:10284000224908610021214841750175B420FFF734
:10285000DDFA07E001211D480175407D012801D105
:102860000420E6E71A48FFF78FF90028F2D000208D
:10287000164908610021154841750175FFF7CEFA28
:1028800001F0B4F901213320FFF7B6FA07E0012186
:102890000E480175407D012801D10420C9E70C488C
:1028A000FFF772F90028F2D00020084908610021E2
:1028B0000648417501750820FFF7B6FA01F096F950
:1028C000FFF7ACFA01F092F90520B2E78804002086
:1028D000004030A210B5044600213220FFF78CFAE8
:1028E00007E0012124480175407D012801D1042021
:1028F00010BD2248FFF748F90028F2D000201E49F9
:10290000086100211C4841750175A520FFF77EFA7A
:1029100007E0012118480175407D012801D10420FC
:10292000E6E71648FFF730F90028F2D000201249F8
:10293000086100211048417501752046FFF766FACD
:1029400007E001210C480175407D012801D10420D8
:10295000CEE70A48FFF718F90028F2D00020064910
:1029600008610021044841750175FFF757FA01F02D
:102970003DF90520BCE7000088040020004030A29B
:102980002DE9FE4F4768D0F808C0D0F80C80D0F889
:102990001090D0F814A0CDF808A0D0F818A0CDF869
:1029A00004A0D0F81CA0CDF800A00022012303252C
:1029B0004FF001160C885FE004F0010ABAF1000F35
:1029C00055D027EA030A91F802B00BFA02FB4AEA53
:1029D0000B0791F808A04FEA420B0AFA0BFA2CEA0F
:1029E000050B4AEA0B0C28EA030A91F80AB00BFA25
:1029F00002FB4AEA0B0829EA060A91F803B002F141
:102A0000100E0BFA0EFB4AEA0B0A91F804B00BFA0F
:102A100002FB4AEA0B09DDF808A02AEA060A91F847
:102A200005B00BFA0EFB4AEA0B0A91F806B00BFA56
:102A300002FB4AEA0B0ACDF808A091F809A04FEA78
:102A4000420B0AFA0BFADDF804B02BEA050B4AEA4E
:102A50000B0ACDF804A0DDF800A02AEA030A91F8D9
:102A600007B00BFA02FB4AEA0B0ACDF800A05B00A4
:102A7000AD007600521C6408002C9DD1DFF8C4A084
:102A8000504502D14FF01F0A01E04FF0000A27EA3B
:102A90000A0AC0F804A0DFF8ACA0504502D14FF0FC
:102AA0001F0A01E04FF0000A2CEA0A0AC0F808A049
:102AB000DFF890A0504502D14FF01F0A01E04FF01F
:102AC000000A28EA0A0AC0F80CA0DFF878A05045EE
:102AD00002D14FF01F0A01E04FF0000A29EA0A0A6A
:102AE000C0F810A0DFF85CA0504502D14FF01F0BDA
:102AF00001E04FF0000BDDF808A02AEA0B0AC0F84D
:102B000014A0DFF840A0504502D14FF01F0B01E0A8
:102B10004FF0000BDDF804A02AEA0B0AC0F818A059
:102B2000DFF820A0504502D14FF01F0B01E04FF01D
:102B3000000BDDF800A02AEA0B0AC0F81CA0BDE8D3
:102B4000FE8F000000000C400146086870470246F6
:102B500013680B400BB1012000E00020704700001B
:102B60000268054B984201D11F2300E000230B436C
:102B70009A4302607047000000000C4002680A435C
:102B8000044B984201D11F2300E000239A430260C6
:102B90007047000000000C404FF6FF7101800021DB
:102BA0008170C170017141718171C1710172417295
:102BB0008172704700B51F48807E012839D11D48B9
:102BC00090F82D00012834D11A4800781A49097864
:102BD000884219D11748C0781649897840EA0120FF
:102BE0001449487508464079097940EA012011499D
:102BF000C882124801780F48FEF7E4F808B90120AE
:102C000000E000200B49087604E00021094A115435
:102C1000411CC8B20749097D8142F6DC0020054904
:102C20000875887688620021024880F82D1080F8A7
:102C30002C1000BD40050020740500202800002055
:102C400001490860704700008800404210B5024604
:102C50000C4BD86820F003001043D860586820F46B
:102C6000706040EA01205860074B1B6843B10123A4
:102C7000054C241D23600023034C883CC4F88C3091
:102C800010BD0000000002408800404238B500201E
:102C9000009000BF212000F069F905460098401C13
:102CA00000900098B0F5C06F01D2002DF2D0212025
:102CB00000F05CF908B1012400E00024204638BD92
:102CC0000149086070470000880140420146044AFB
:102CD000D06820F0F00040EA0110D060704700009A
:102CE000000002400146034AD06820F440700843C7
:102CF000D0607047000002402DE9FC4F0146DFF82C
:102D000064B2DBF80CB00BF0020BBBF1000F01D08A
:102D1000954B00E0944BDFF84CB2DBF80CB00BF0B5
:102D2000010BBBF1000F00D05B081C46DFF834B28A
:102D3000DBF80CB00BF0040BBBF1000F0DD0DFF88B
:102D400024B2DBF804B0CBF3032B0BF1010BCDF86D
:102D500000B0DDF800B004FB0BF4DFF808B2DBF8DC
:102D60000CB0CBF3012BBBF1000F06D0BBF1010F70
:102D700008D0BBF1020F28D122E0DFF8ECB1C1F896
:102D800000B027E0DFF8DCB1DBF80CB04FF0080E44
:102D90000EEA1B1BBBF1000F01D1A0460DE0DFF8CE
:102DA000C4B1DBF80CB0CBF3021B0BF1010B4FF0FD
:102DB000010E0EFA0BFEB4FBFEF8C1F8008009E02C
:102DC0004FF4004BC1F800B004E049F6404BC1F8A5
:102DD00000B000BF00BFDFF88CB1DBF810B00BF023
:102DE000020BBBF1000F01D05F4D00E05E4DDFF83C
:102DF00074B1DBF810B00BF0010BBBF1000F00D089
:102E00006D082F46DFF85CB1DBF810B00BF0040B57
:102E1000BBF1000F0DD0DFF84CB1DBF804B0CBF301
:102E2000031B0BF1010BCDF800B0DDF800B007FB80
:102E30000BF7B946DFF82CB1DBF810B00BF0100B34
:102E4000BBF1000F01D04FEA5909C1F80490DFF837
:102E500014B1DBF818B04FEA1B1000F0080BBBF1FF
:102E6000000F02D1DFF800C10BE000F0070B0BF1FF
:102E7000010B4FF0010E0EFA0BF0DFF8ECB0BBFBCC
:102E8000F0FCC1F80CC0DFF8DCB0DBF8180000F093
:102E9000080BBBF1000F04D1DFF8CCB0CDF804B0C3
:102EA0000DE000F0070B0BF1010B4FF0010E0EFAD5
:102EB0000BF0DFF8B4B0BBFBF0FBCDF804B0DDF8ED
:102EC00004B0C1F810B0DFF89CB0DBF814B00BF020
:102ED000030BBBF1000F06D0BBF1010F05D0BBF116
:102EE000020F06D103E01E4605E02E4603E026460B
:102EF00001E03E4600BF00BFDFF868B0DBF814B069
:102F0000CBF3011BBBF1000F06D0BBF1010F06D0C4
:102F1000BBF1020F08D105E04FF4004206E049F68C
:102F2000404203E0324601E0624600BF00BFDFF8E6
:102F300034B0DBF814B04FEA1B2000F0080BBBF1F3
:102F4000000F01D1924609E000F0070B0BF1010BD5
:102F50004FF0010E0EFA0BF0B2FBF0FAC1F808A028
:102F6000BDE8FC8F0000024000127A0010B5014657
:102F700001F0E003202B02D1074B1A6801E0074B58
:102F8000DA6B01F01F040123A34013400BB10120B1
:102F900000E0002010BD00000000024000800D4055
:102FA0000D49896821F003010B4A9160012802D084
:102FB00002280ED106E00849896841F00101064A5D
:102FC000916007E00449896841F00301024A916079
:102FD00000E000BF00BF70470000024038B500208D
:102FE000009000BF2220FFF7C1FF05460098401C5B
:102FF00000900098B0F5C06F01D2002DF2D02220D1
:10300000FFF7B4FF08B1012400E00024204638BDDA
:1030100029B1064AD2690243044BDA6104E0034A4B
:10302000D2698243014BDA61704700000000024020
:1030300010B5FEF771FD042809D10748FEF73AFDE7
:1030400005484079012806D10349087303E00020B0
:1030500001490873086010BD8804002010B50446BB
:103060006068022804D004282FD008282CD166E0FC
:103070004A48007810B90020207025E047480078C1
:10308000012801D120701FE044480078022808D1AF
:1030900043480078012801D0012000E00020207082
:1030A00012E03E480078032802D1012020700BE096
:1030B0003A480078042807D139480078012801D01F
:1030C000012000E0002020705BE03448007850B917
:1030D0003449486B3449FDF7F5FA01D3012000E08B
:1030E000002020702AE02D48007801280AD12D49BF
:1030F000486B2E49FDF7E6FA01D3012000E00020DD
:1031000020701BE025480078022802D101202070A1
:1031100014E022480078032802D1012020700DE03D
:103120001E480078042809D11E49486B1F49FDF745
:10313000C9FA01D3012000E00020207021E01748E7
:10314000007810B9002020701AE014480078012897
:1031500002D10020207013E010480078022802D12C
:10316000012020700CE00D480078032802D10120D6
:10317000207005E009480078042801D10120207062
:1031800000BF00BF207820B909486168FFF7F6FC4E
:1031900003E007486168FFF7E3FC10BD0000002072
:1031A000C8010020100200200000AA420000A04137
:1031B00000800C4070B50446607F01283FD0FEF7C8
:1031C00015FDA1786054A078205C20498978C90059
:1031D0008840A1880843A080A07801282AD1A0882F
:1031E00000F47860B0F5786F01D0012000E0002095
:1031F0002073207B18B9A088C043401CA080207B8E
:1032000040B9A1884842FDF7C7F905462169FCF796
:10321000CBFF06E0A088FDF7C8F905462169FCF759
:10322000C3FFA0600A49A068C1F840020020A08046
:10323000A07009E0A078401CC0B2A07004E005486E
:10324000A0600349C1F8400270BD00005C0400208A
:10325000100200200000C8412DE9F041044600257D
:103260005748016A2046FCF799FF06462146FCF7BD
:10327000CDFF804600214046FDF71AFA04D251499D
:103280004046FCF791FF00E0404680464046FDF78F
:10329000AFF906464C4A4D4BFDF7D6F901D232251F
:1032A00052E04046FDF7A4F906464FF03332484B52
:1032B000FDF7CAF90AD24046FDF79AF90646424A96
:1032C000424BFDF7A9F901D81E253DE04046FDF728
:1032D0008FF906463F4A404BFDF7B6F90BD2404600
:1032E000FDF786F906464FF03332394BFDF794F976
:1032F00001D80F2528E04046FDF77AF90646374AFF
:10330000374BFDF7A1F90AD24046FDF771F90646A1
:10331000304A314BFDF780F901D8072514E04046CB
:10332000FDF766F906462F4A2F4BFDF78DF90AD2B5
:103330004046FDF75DF90646284A294BFDF76CF932
:1033400001D8012500E0002540212848FFF716FCA0
:103350002748016A2046FDF7B5F92BD21848016AC3
:103360002046FDF7A5F911D22248006B28442149D7
:1033700008630846006BB0F5805F02DB40F6FF7023
:1033800001E01C48006B1B4908630EE01948006B04
:10339000401B184908630846006B002801DA00202A
:1033A00001E01448006B134908631249086BFEF7EB
:1033B000ADFB03E080210D48FFF7E0FBBDE8F081A5
:1033C00000010020000080BF9A9999999999C93FFE
:1033D0003333C33FEC51B81E85EBA13FB81E85EBDC
:1033E00051B88E3F7B14AE47E17A643F00800C40B9
:1033F0002C0100201002002030B5204CE46804F0BD
:103400000204022C01D11E4800E01D481B4CE46858
:1034100004F0010404B140080146184CE46804F0CB
:103420000404042C05D1154C6468C4F30324631C04
:103430005943124CE468C4F3012424B1012C06D092
:10344000022C13D10DE00E4C0E4D2C6013E00B4CF2
:10345000E468C4F30314641CB1FBF4F2094C226069
:1034600009E04FF40044074D2C6004E049F6404465
:10347000044D2C6000BF00BF30BD000000000240C2
:1034800000127A002C00002000B510200749C86106
:103490000020C860486088600861486188610862EF
:1034A00048628862C862FFF7A7FF00BD00000240C3
:1034B0000246104B586A104B9A4205D120F0FF008B
:1034C000084340F0807012E00C4B9A4206D120F481
:1034D0007F4040EA012040F0007008E0084B9A422B
:1034E00005D120F47F0040EA014040F08060014BAC
:1034F000586270470000024000000740008007400B
:1035000000000840CA43426570470A46C16812B1CC
:1035100041F0010101E021F00101C160704730B5C7
:103520000C8804604C8844608C888460CC880D8949
:103530002C444D892C448D892C44CD896319C3605A
:103540004C8A0D8A04EB05148D8A2C44CD8A6219AD
:10355000026530BD0021018041808180C1800181F0
:1035600041818181C181018241828182C182704712
:103570000021C1600160416081600162416281623D
:10358000C162016341638163C16301664166816613
:10359000C166016141618161C16101674167816704
:1035A000C167016441648164C164016541658165ED
:1035B000C165704710B51346826D0BB10A4300E038
:1035C0008A43826510BD00002DE9F047022186483C
:1035D000FFF798FF8548FEF76DFA8548FEF76AFA0F
:1035E0008448FEF767FA8448FEF764FA81480C3095
:1035F000FEF760FA8148FEF75DFA8148FEF75AFA55
:103600008048FEF757FA8048FEF754FA7E480C309F
:10361000FEF750FA7D48FEF74DFA7D48FEF71EFC96
:103620007C48FEF71BFC7C48FDF780F97B48FDF7E2
:103630007DF97B48FDF77AF97A48FDF777F97A4802
:10364000FDF774F97948FDF771F97948FDF76EF9DE
:10365000784800F027FA784800F024FA774800F01C
:1036600021FA7748007880BB7248007818B1724818
:103670000078012829D16348007930BB714800687F
:103680004FF6E071084040F480706E4908600120F8
:1036900058490C3981F848026949087000206A4984
:1036A000087054490C3981F83402012055490871D9
:1036B000012150480C3880F828106448007804280C
:1036C00003D04C481830FEF7F5F95D480078012822
:1036D0001DD158480078012819D14A480079B0B95D
:1036E0005848006840F21F1188435649086000207E
:1036F00040490C3981F84802514908705249087014
:1037000001203C490C3981F834023E4908714C488B
:103710000078032808D147480078012804D1022006
:1037200034490C3981F8340245480078012833D1F6
:103730003348007980BB4649C869FCF759FF804689
:10374000444A454BFCF747FE04460D463449086A97
:10375000FCF74EFF064622462B46FCF775FF1BD2B0
:1037600004203749087001203C490870354800683A
:1037700040F21F1188433349086000201D490C396D
:1037800081F84802012081F83602012119480C38DD
:10379000017701202C49487229480078042820D15B
:1037A0002B49C869FCF724FF06462A4A2A4BFCF736
:1037B00012FE04460D461A49086AFCF719FF8046B6
:1037C00022462B46FCF740FF0BD21E48006840F211
:1037D0001F1188431B490860002006490C3981F8F5
:1037E0004802BDE8F087000000000740D401002037
:1037F000E00100201C0200202C040020EC0100202D
:10380000F801002004020020980400206805002030
:103810004400002060000020580100207C000020AF
:10382000A8000020D4000020000100202C0100206E
:1038300084010020C8010020BC010020B00100204C
:103840000000002000000B4030000020020000209B
:10385000B00400209A9999999999F13F01000020AC
:1038600070B52049086AFCF7C3FE05461E4A1F4B87
:10387000FCF7EAFE04D8F0241D481E4948602CE0FD
:103880001849086AFCF7B4FE0546174A1A4BFCF7BC
:10389000DBFE0ED81349086AFCF7AAFE0546174A54
:1038A000174BFCF7B9FE04D8782416481149486034
:1038B00013E00C49086A0021FCF704FF0DD8094900
:1038C000086AFCF795FE0546074A0B4BFCF7A4FE79
:1038D00003D84B240C480749486006484168C16139
:1038E000204670BD840100200D4FAF946508004054
:1038F00000002041B00400206508F03F79AA436E23
:10390000869BFF3F0000A0400000484010B51021FA
:10391000134800F057F8012821D11021104800F079
:1039200041F80F4800F0BAF80E49097D0D4A50548D
:103930001046007D142803D100201146087504E0CC
:103940000848007D401C0749087501200549887614
:103950000121044880F82C1000200249886210BD23
:10396000000003404005002002460B4B986A0B4BB9
:103970009A4205D140F0807020F0FF00084308E033
:10398000074B9A4205D140F0007020F47F4040EA96
:103990000120014B98627047000002400000034084
:1039A00000800340426C0A434264704721B1026BBD
:1039B00042F00102026304E0026B4FF6FE731A400C
:1039C000026370470246136C0B400BB1012000E00C
:1039D000002070471AB1836B0B43836302E0836B53
:1039E0008B438363704700002DE9F04F87B0044696
:1039F0000D4601A8FFF780F9019F2548866A2548F2
:103A0000844206D106F0070101208840B7FBF0F799
:103A100008E02148844205D1C6F3022101208840F4
:103A2000B7FBF0F728688008B7FBF0F94FEA991860
:103A300009F03F0AB8000AEB8811B0FBF1F00690DC
:103A400029680698401AC001B0FBF1FBBBF1020FD8
:103A500002DC1BF1020F03DA002007B0BDE8F08F93
:103A6000C4F82480C4F828A0E66AA888E988084336
:103A700029890843698908430643E662266B4FF6A5
:103A800080708643A889064326630120E5E700008D
:103A90000000024000000340008003400146086827
:103AA00080B270470D4909784906090E0B4A11701A
:103AB0001146097801F007011170416809688268B0
:103AC000114009B1012100E0002101700178034A91
:103AD00012781143014A1170704700002400002041
:103AE00000280DDB00BF00BF00F01F020121914044
:103AF0004209920002F1E022C2F8001100BF00BFAB
:103B0000704702E008C8121F08C1002AFAD17047A6
:103B10007047002001E001C1121F002AFBD170474D
:103B200000B591B001214FF08170FFF771FA68463E
:103B3000FFF732F8BF20ADF8000000208DF80A0032
:103B400069461948FEF71CFF00200A900B900C9064
:103B50000D900E900F9010900AA8FCF787FF0020A0
:103B60008DF80C004FF44050ADF8220000208DF885
:103B70000D00ADF80E008DF810000590072009909B
:103B80000020ADF81800ADF81A00ADF81C00ADF833
:103B90001E008DF8200003A8FCF790FE0120FCF722
:103BA00073FE11B000BD000000000C400EB50121F5
:103BB0004FF00170FFF72CFA6846FEF7EDFF012089
:103BC000ADF8000000208DF80A0069460648FEF7AF
:103BD000D7FE0020FDF790FF0120FDF77FFF40F6A4
:103BE000FF70FDF793FF0EBD00800C4001210548DA
:103BF00080F8201000BF034890F820000028FAD178
:103C0000704700008804002000B585B001211E48DF
:103C1000FFF7FEF902A8FEF7BFFF00208DF80B00AA
:103C20008DF80C0001208DF80D008DF80E0003209A
:103C30008DF8110001208DF812000320ADF8080066
:103C400002208DF8100001208DF80A008DF80E007A
:103C500002A90E48FEF794FEFDF7B0FF2720009062
:103C600000208DF804006846FDF7C6FF0120FDF72F
:103C700097FF00213220FEF7BFF8E120FEF7C6F8DB
:103C8000FEF7CCF805B000BD0004800000800B40BA
:103C9000FEF7D2F800BF11480068BF28FBD1012110
:103CA0000F48017709E000200E4908700F20487086
:103CB00001200D4908700F2048700948007F012835
:103CC000F1D009E0FCF7BAFFFDF7F8F9FEF7FCF8D0
:103CD000FFF7AEF9FEF76EFFF4E7000020000020CA
:103CE0001002002044000020600000200EB50121D9
:103CF0004806FFF78DF901214807FFF789F90121EF
:103D00004805FFF785F901218805FFF781F90121B1
:103D1000C805FFF77DF9FF20ADF8000000208DF801
:103D200002008DF8080001208DF80A008DF80300CC
:103D300069462748FEF724FE4FF4C060ADF8000046
:103D400069462448FEF71CFE0420ADF800006946D1
:103D50002148FEF715FE4020ADF8000069461F48D7
:103D6000FEF70EFECE20ADF8000001208DF8020017
:103D700000208DF8080001208DF80A008DF8090058
:103D800069461748FEF7FCFD0F20ADF80000012042
:103D90008DF8020069461348FEF7F2FD0121114833
:103DA000FEF7ECFE02210F48FEF7E8FE04210D4865
:103DB000FEF7E4FE08210B48FEF7E0FE4FF48070AA
:103DC000ADF8000069460348FEF7DAFD0EBD0000BD
:103DD00000800A4000000B4000800B4000000C40B7
:103DE00000800C4000800E4010B50120FFF7D8F88D
:103DF00003E009210220FEF729FFFFF7EFF8012871
:103E0000F7D11048C06840F002000E49C86008466B
:103E1000406840F4106048600120FEF711FF00BFC9
:103E2000FEF734FF0128FBD10020FEF74FFF0120F1
:103E3000FEF746FF4FF48070FEF754FFFFF7DCFA01
:103E400010BD0000000002406FF002006F49C86022
:103E500041106E480161490041616FF00C018161C0
:103E6000081D6B49C8604110694801616FF00C0181
:103E700041618910816102206649486004206649D9
:103E80004860082065494860002065490870102096
:103E90006449087020206449087030206349087024
:103EA00040206349087050206249087070206249C0
:103EB000087062485A4948625A49486260485A49FB
:103EC00048625A4948625A4948625E4859494862BC
:103ED0005949486240F6FF705B4908635B48486394
:103EE0005B48C1F84002322081F84402F62081F894
:103EF0004502EC2081F84602012081F847020020AB
:103F000081F836024AF6C8714F48016203204E49D3
:103F100081F83402012081F8380001214A4880F8F4
:103F200020124C484C4988600120487140F24650AC
:103F30004A4988605A204A4988604FF4617049496B
:103F400088604000484988604AF6C8713E48C0F819
:103F500024127821C0F830121421C1620A2043498A
:103F600088600120087109214048816141624FF059
:103F700076503F4908610A213D488162012180F85D
:103F800024103C483C4948603C4948603C483D4915
:103F9000486000153849886040103849886004201E
:103FA0003849886038483949486039480860394993
:103FB00036484162384835490862384838494860CF
:103FC000002008604FF084413048416130482F495B
:103FD00008613449324841614168C161002030497B
:103FE00008611A493048416130482F490861304919
:103FF0002D48816100202F49887610212D480163CA
:1040000000202D4988607F20087070474400002000
:1040100060000020040000200C000020140000209C
:104020007C000020A8000020D40000200001002017
:104030002C01002058010020840100207D49033C10
:10404000DB6E153CD946373A10020020000048428A
:104050000000C841B01E0400D4010020E00100208F
:10406000EC010020F8010020040200208804002058
:104070005C04002000000B40B0010020BC010020C7
:1040800000800B40C80100206666E641E004002085
:10409000000098410000C4410000A44100002041FC
:1040A000B00400200000404010050020000020C1A6
:1040B0000000A0C1400500207405002000B587B0B5
:1040C00001218803FEF7A4FF1448FFF751FA0021ED
:1040D0001248FFF7EDF901A8FFF73CFA2B20ADF8E5
:1040E0000600CE20ADF808000020ADF80A00ADF8BB
:1040F0000C00ADF8120001A90848FFF710FA0122E0
:1041000002210648FFF756FA0E20FFF7E9FC0121CD
:104110000248FFF7FAF907B000BD000000000740B1
:1041200000B58BB08020ADF8200001208DF8220072
:1041300000208DF8280001208DF82A008DF8290034
:1041400008A92F48FEF71CFC01218805FEF760FF37
:1041500001218805FEF75CFF00208DF817008DF81F
:1041600018008DF819008DF81A008DF81B00022038
:104170008DF81C0003208DF81D0001208DF81E0015
:1041800000208DF816004020ADF8140005A91C4849
:10419000FEF7F6FB01208DF816002020ADF8140084
:1041A00005A91748FEF7ECFB01214020FEF730FF80
:1041B00000211448FFF7D8FB0620FFF791FC4FF4CD
:1041C000964001906020ADF808000020ADF80A008C
:1041D000ADF80C00ADF80E004FF44070ADF81000D3
:1041E00001A90848FFF700FC012210210548FFF74C
:1041F000F1FB01210348FFF7D9FB0BB000BD000024
:1042000000000B400000034028420008000000208E
:1042100030000000023B0008584200083000002037
:10422000100A0000123B000800000000000000001F
:10423000000000000000000000000000000000007E
:10424000000000000000000000000000000000006E
:084250000800000000127A00D2
:04000005080000C12E
:00000001FF
