:020000040800F2
:10000000400E0020D5000008DD000008DF000008D9
:10001000E1000008E3000008E5000008000000001F
:10002000000000000000000000000000E7000008E1
:10003000E900000800000000EB000008ED000008E7
:10004000EF000008EF000008EF00000800000000CB
:1000500000000000EF000008951E0008EF000008F7
:10006000EF00000800000000EF000008EF000008AB
:10007000EF00000800000000191D0008C91D00085D
:10008000EF000008EF00000800000000EF0000088B
:10009000EF00000800000000000000000000000069
:1000A000000000000000000000000000EF00000859
:1000B000EF000008EF000008EF000008EF00000864
:1000C000DFF80CD000F0D2F8004800474D230008BC
:1000D000400E00200648804706480047FEE7FEE73E
:1000E000FEE7FEE7FEE7FEE7FEE7FEE7FEE7FEE7E8
:1000F000D91B0008C100000880EA010210B502F017
:100100000043400022D04A001FD0010E01EB1261D3
:10011000C0F35600C2F3560240F4000042F400025D
:10012000A0FB022000047F39140400D0401C50EAD8
:10013000124001D44000491EC2B20C0604EBD0109C
:10014000401C4008802A02D003E0002010BD20F0AF
:100150000100002900DA0020184310BDC10F80EA19
:10016000E0700844CA079623002100F050B8962397
:100170000022114600F04BB800F0004220F0004091
:10018000C10DC0F3160040F400007F2901DA002001
:100190007047962903DCC1F19601C84001E0963909
:1001A0008840002AF4D04042704720F00040C10D42
:1001B000C0F3160040F400007F2901DA00207047E8
:1001C000962903DCC1F19601C840704796398840F2
:1001D00070470000002801DBC0F10040002901DB6E
:1001E000C1F1004181427047002801DBC0F10040AD
:1001F000002901DBC1F10041884270470029A8BFF6
:100200007047401C490008BF20F00100704710B43F
:10021000B0FA80FC00FA0CF050EA010404BF10BCF4
:10022000704749B1CCF1200421FA04F411FA0CF121
:1002300018BF012121430843A3EB0C01CB1D4FEA5A
:1002400000614FEA102042BF002010BC704700EB55
:10025000C35010440029A4BF10BC7047401C490083
:1002600008BF20F0010010BC70470000064C074D8D
:1002700006E0E06840F0010394E807009847103476
:10028000AC42F6D3FFF720FFE82800081829000841
:1002900040F2BF0CC2F2000C604740F2553CC2F283
:1002A000000C60470146054A106811B140F001009A
:1002B00001E020F00100014A106070470080084012
:1002C0000148806970470000008008400148006ACA
:1002D000704700000080084010B5144B1A68144B9A
:1002E0001A4003784478234444882344047903EB78
:1002F000041384892344448A2344C48A2344047E07
:1003000003EB44631A44094B596821F40031037D1F
:1003100001EB4341C389054C2361038AA3608368D1
:10032000A36223461A60596010BD00000080084097
:100330000300FFF10348006840F002000149086033
:10034000704700000080084070B504464E480068C1
:1003500020F4F8704C49086008460068217808438A
:1003600049490860FFF7E6FF002505E0681C80B2F8
:1003700005460A2800D170BDFFF7A8FF00F0040071
:100380000028F3D0FFF79CFF81B2228DA01C20F83B
:100390001210228D30F81200A1690844A0613B4878
:1003A0000068BF2836D10A21A069B0FBF1F0A08314
:1003B000207810B1207810281BD13548808BA18B74
:1003C00088420ADAA18B324A928B881AFFF7C6FE5E
:1003D0000646616AFFF790FE09E02D49898BA28BE2
:1003E000881AFFF7BBFE0646616AFFF785FE2062AA
:1003F00007E0A08BFFF7BBFE0646616AFFF77CFEB5
:1004000020622078011101208840224909680843B0
:1004100020490860208D092809D120780111012088
:1004200088401A49096808431849086004E01748D9
:100430000068004315490860208D092804D16188AF
:10044000A069401AA06107E0208D401CA11C31F872
:100450001000A269101AA061208D092802D1002085
:10046000608005E00022208D401CA11C21F8102096
:10047000208D092802D10020208502E0208D401C1B
:10048000208500BF77E70000008008407C03002043
:10049000B40400208003002010B5D0E902342344C6
:1004A00004692344446919190479036803EB04734C
:1004B000048B03EB44531944044A054B1A43054B80
:1004C0001B6893430B44034C236010BD00001EF0D7
:1004D0000000E1010080084030B502460B464FF6AF
:1004E000FF7010E012F8014B6040002109E000F0BD
:1004F000010424B14AF2010484EA500000E04008FB
:10050000491C0829F3DB1C1EA3F10105EBB2E9D15C
:1005100030BD000010B500F0FFF900F00200022825
:100520000CD0094800F066F80748203890F82500FC
:10053000012808D104492039487704E00020024905
:1005400020394877086210BD2406002010B52748DE
:1005500090F87B4040E0082C04D0092C15D00A2CE0
:1005600037D124E0214991F87810491C1F4A515C89
:1005700092F878201D4B9A5C41EA0220FFF7EEFDCD
:1005800001461B48C0F8841023E0184991F8781000
:10059000491C164A515C92F87820144B9A5C41EA47
:1005A0000220FFF7DBFD1249C1F8A00011E00F495E
:1005B00091F87810491C0D4A515C92F878200B4B49
:1005C0009A5C41EA0220FFF7C9FD0949C1F8A4007D
:1005D00000BF00BF601CC4B2044890F87B00034910
:1005E000B1F87C100844A042B5DC10BDE80600203C
:1005F00054090020017901290ED10168491C0160CC
:100600000021417182680168914205D30021016097
:10061000012141710021017170470000C0F30721E1
:10062000054A92F87820044B9954194691F87810AD
:10063000491C585470470000E806002070B5044675
:1006400006492046FFF758FD06463046FFF794FD61
:1006500005B22846FFF7E2FF70BD00000000C84267
:100660000146054A106811B140F0080001E020F091
:100670000800014A10607047000009400146034A23
:10068000106820F002000844106070470000094024
:1006900001498860704700000000094010B5FF2044
:1006A0002A4908702A4808642A49284841642A4986
:1006B00001662A4941660020244908610021234837
:1006C0000162274941620021816201F097FB1F49C5
:1006D00081F8C3004FF084411C4841651C49016505
:1006E0002049C0F884102049C0F880101F49C0F884
:1006F00088101F481549C1F8A0001E48C1F8A40081
:100700001448C1F8A8001C48C1F8AC001E20A1F88C
:10071000B000C820A1F8B2002820A1F8B4006420DD
:10072000A1F8B6003C20A1F8B8002820A1F8BA0032
:10073000012081F8C10081F8C0001048C1F8BC0058
:1007400040F2AF4048600E48886010BD5409002058
:10075000000098416666E6416666B6410000C44105
:100760000000404000004842000020C10000A0C13D
:100770000000A041E17AE44185EBD9413789413E4F
:10078000E8FAEE0070B572B62C4C00212046FFF757
:100790007FFD401C00284ED0002509E004EB8500B9
:1007A0000021FFF775FDC1B225484155681CC5B24F
:1007B0000B2DF3DB2C3400250AE004EB850000212F
:1007C000FFF766FDC1B21E480B304155681CC5B22B
:1007D000062DF2DB183400250AE004EB8500002129
:1007E000FFF756FDC1B2164811304155681CC5B21D
:1007F000092DF2DB243400250AE004EB85000021FA
:10080000FFF746FDC1B20E481A304155681CC5B20B
:10081000082DF2DB203400250AE004EB85000021DE
:10082000FFF736FDC1B2064822304155681CC5B2FB
:10083000012DF2DB241D62B670BD000000B000087F
:10084000180A002010B500F083F8042800D110BD6C
:1008500000F052FA042800D1F9E700F0D7F9CC20D3
:1008600000F0A8FA042800D1F1E7442000F0A2FA31
:10087000042800D1EBE700F03FFA042800D1E6E7B6
:1008800000F0C4F9CC2000F095FA042800D1DEE78E
:10089000BE2000F08FFA042800D1D8E700F096F8C7
:1008A000042800D1D3E700F091F8042800D1CEE766
:1008B0000520CCE710B5034600F022F81840984216
:1008C00001D1012400E00024204610BD0146054A64
:1008D000906811B140F0800001E020F08000014AF2
:1008E000906070470000054000200449886008615E
:1008F00001208861002008604860704700000540C2
:1009000004498969034A126941EA0220C14340EA65
:1009100001407047000005400148C068C0B2704700
:100920000000054010B5094B9968037903F02003D6
:1009300013B141F0200101E021F02001034B996047
:1009400002681A60130A014C636010BD0000054084
:1009500010B50021322000F0E5F807E00121194828
:100960000175407D012801D1042010BD1648FFF714
:10097000A1FF0028F2D0002012490861002111488F
:100980004175017501F06EFCF02000F0D5F807E02C
:1009900001210C480175407D012801D10420E4E7C4
:1009A0000948FFF787FF0028F2D0002005490861B9
:1009B000002104484175017500F0C6F801F052FCB1
:1009C0000520D2E730060020004030A210B50021FB
:1009D000322000F0A7F807E001214F480175407D63
:1009E000012801D1042010BD4C48FFF763FF002807
:1009F000F2D000204849086100214748417501753F
:100A0000962000F099F807E0012143480175407DE8
:100A1000012801D10420E6E74048FFF74BFF0028FA
:100A2000F2D000203C49086100213B484175017526
:100A300000F08AF801F016FC0021322000F072F874
:100A400007E0012134480175407D012801D10420CF
:100A5000C9E73248FFF72EFF0028F2D000202E49C8
:100A6000086100212C4841750175E12000F064F80F
:100A700007E0012128480175407D012801D10420AB
:100A8000B1E72648FFF716FF0028F2D000202249E0
:100A900008610021204841750175E12000F04CF803
:100AA00007E001211C480175407D012801D1042087
:100AB00099E71A48FFF7FEFE0028F2D000201649F9
:100AC000086100211448417501750121332000F0AF
:100AD00029F807E0012110480175407D012801D166
:100AE000042080E70D48FFF7E5FE0028F2D0002043
:100AF000094908610021084841750175082000F086
:100B000029F801F0AFFB064800F0CEFF00F01CF81A
:100B100001F0A8FB052066E730060020004030A267
:100B20000406002020F001020A43024B5A61902281
:100B30009A61704700000540024948611021014A4E
:100B4000916170470000054040200149886170476D
:100B50000000054040F02001014A9161704700000B
:100B60000000054010B572B601F0A8FC01F024FCAD
:100B700001F012FB01F0EAFD01F016FE01F052FB5C
:100B800001F088FB01F03EFE01F07AFB01F0C6FBAC
:100B900001F0A8FE01F0C2FCFFF7F4FD62B610BD43
:100BA0001949096882691143174A11604178037A2B
:100BB00001229A401140194101290AD112490968BC
:100BC000037800F10C0252F8232011400E4A116004
:100BD00005E00D490968826911430B4A116040F232
:100BE0006542416891420BD100214160017A072999
:100BF00002D10021017206E0017A491C017202E073
:100C00004168491C4160704700800E4010B50021CA
:100C10003220FFF787FF07E0012135480175407D4D
:100C2000012801D1042010BD3248FFF743FE0028FF
:100C3000F2D000202E49086100212D484175017530
:100C4000E120FFF779FF07E0012129480175407D88
:100C5000012801D10420E6E72648FFF72BFE0028F3
:100C6000F2D0002022490861002121484175017518
:100C7000F020FFF761FF07E001211D480175407D6D
:100C8000012801D10420CEE71A48FFF713FE0028FF
:100C9000F2D0002016490861002115484175017500
:100CA00001213320FFF73EFF07E0012110480175C5
:100CB000407D012801D10420B5E70E48FFF7FAFD79
:100CC0000028F2D000200A49086100210848417537
:100CD000017501F0C7FA0820FFF73CFF01F0C2FAE6
:100CE000FFF718FCFFF730FF01F0BCFA05209AE788
:100CF00030060020004030A210B500213220FFF75E
:100D000011FF07E0012129480175407D012801D12B
:100D1000042010BD2648FFF7CDFD0028F2D00020AA
:100D2000224908610021214841750175B420FFF76F
:100D300003FF07E001211D480175407D012801D115
:100D40000420E6E71A48FFF7B5FD0028F2D000209E
:100D5000164908610021154841750175FFF7F4FE39
:100D600001F080FA01213320FFF7DCFE07E00121CA
:100D70000E480175407D012801D10420C9E70C48C7
:100D8000FFF798FD0028F2D00020084908610021F3
:100D90000648417501750820FFF7DCFE01F062FA94
:100DA000FFF7D2FE01F05EFA0520B2E73006002020
:100DB000004030A210B5044600213220FFF7B2FEF9
:100DC00007E0012124480175407D012801D104205C
:100DD00010BD2248FFF76EFD0028F2D000201E490A
:100DE000086100211C4841750175A520FFF7A4FE8C
:100DF00007E0012118480175407D012801D1042038
:100E0000E6E71648FFF756FD0028F2D00020124909
:100E1000086100211048417501752046FFF78CFEDE
:100E200007E001210C480175407D012801D1042013
:100E3000CEE70A48FFF73EFD0028F2D00020064921
:100E400008610021044841750175FFF77DFE01F03E
:100E500009FA0520BCE7000030060020004030A25F
:100E60002DE9FE4F4768D0F808C0D0F80C80D0F8C4
:100E70001090D0F814A0CDF808A0D0F818A0CDF8A4
:100E800004A0D0F81CA0CDF800A000220123032567
:100E90004FF001160C885FE004F0010ABAF1000F70
:100EA00055D027EA030A91F802B00BFA02FB4AEA8E
:100EB0000B0791F808A04FEA420B0AFA0BFA2CEA4A
:100EC000050B4AEA0B0C28EA030A91F80AB00BFA60
:100ED00002FB4AEA0B0829EA060A91F803B002F17C
:100EE000100E0BFA0EFB4AEA0B0A91F804B00BFA4B
:100EF00002FB4AEA0B09DDF808A02AEA060A91F883
:100F000005B00BFA0EFB4AEA0B0A91F806B00BFA91
:100F100002FB4AEA0B0ACDF808A091F809A04FEAB3
:100F2000420B0AFA0BFADDF804B02BEA050B4AEA89
:100F30000B0ACDF804A0DDF800A02AEA030A91F814
:100F400007B00BFA02FB4AEA0B0ACDF800A05B00DF
:100F5000AD007600521C6408002C9DD1DFF8C4A0BF
:100F6000504502D14FF01F0A01E04FF0000A27EA76
:100F70000A0AC0F804A0DFF8ACA0504502D14FF037
:100F80001F0A01E04FF0000A2CEA0A0AC0F808A084
:100F9000DFF890A0504502D14FF01F0A01E04FF05A
:100FA000000A28EA0A0AC0F80CA0DFF878A0504529
:100FB00002D14FF01F0A01E04FF0000A29EA0A0AA5
:100FC000C0F810A0DFF85CA0504502D14FF01F0B15
:100FD00001E04FF0000BDDF808A02AEA0B0AC0F888
:100FE00014A0DFF840A0504502D14FF01F0B01E0E4
:100FF0004FF0000BDDF804A02AEA0B0AC0F818A095
:10100000DFF820A0504502D14FF01F0B01E04FF058
:10101000000BDDF800A02AEA0B0AC0F81CA0BDE80E
:10102000FE8F000000000C40014608687047024631
:1010300013680B400BB1012000E000207047000056
:1010400002680A43044B984201D11F2300E00023A9
:101050009A4302607047000000000C404FF6FF7199
:10106000018000218170C170017141718171C17174
:1010700001724172817270472DE9F041BE480078DB
:10108000BE490870084690F87A00032806D0062862
:1010900008D010280AD0112810D10BE00320B7493E
:1010A00048700BE00620B549487007E01020B349AE
:1010B000487003E01120B149487000BF00BFAF483D
:1010C00090F87A00032806D0062810D010281CD0EB
:1010D00011282FD127E0A94991F87C104906080E64
:1010E000A64988700321A54A82F8781022E0A34817
:1010F00090F87B000012A1498870084690F87B00A8
:10110000C870042081F8780014E09C4890F87B00B7
:1011100000129A498870084690F87B00C870042035
:1011200081F8780006E0232094498870032081F834
:10113000780000BF00BF914890F87A00102817D1BE
:101140008E48B0F87C0000128C4991F878108B4AD8
:101150005054104690F87C1090F87800401C1154C0
:10116000104690F87800801C114681F87800DCE089
:10117000824890F87A00032804D0804890F87A00DA
:101180000628F4D17D4890F87B40C4E00D2C0BD2AA
:10119000DFE804F0B1070B10151A1F24464B505519
:1011A00080007748FFF74AFAA5E07649086AFFF71A
:1011B00045FAA0E07449086AFFF740FA9BE07349DA
:1011C000086AFFF73BFA96E07149086AFFF736FABA
:1011D00091E07049086AFFF731FA8CE00025402160
:1011E0006D48FFF724FF07466C4800786C49097882
:1011F00040EA41006B49097840EA81006A49097870
:1012000040EAC1006949097840EA01106849097853
:1012100040EA411040EA87152846FFF7FFF96AE0E7
:1012200064490878FFF7FAF965E062494878FFF702
:10123000F5F960E05F498878FFF7F0F95BE05E4818
:10124000407F10BB5D48007BF8B95B49886800218E
:10125000FEF7C0FF14D2584881685948FEF74CFF8A
:1012600080465849FEF748FF05462846FEF784FFAA
:1012700007B2781EC04307B23846FFF7CFF908E03F
:101280004D498868FFF7DAF903E047F6FF70FFF78A
:10129000C5F930E000254C48FFF7C6FE00F0F0002D
:1012A0004A4908604848FFF7BFFE00F00F00474971
:1012B0008860084681680F20884344490968C9430B
:1012C00060F31F110D462C484078F02802D145F0FC
:1012D00003050CE028484078782802D145F0020543
:1012E00005E0254840784B2801D145F00105284606
:1012F000FFF794F900BF00BF204890F87800401C29
:101300001E4981F87800084690F87800401C81F862
:101310007800601CC4B2194890F87B001749B1F8F6
:101320007C100844A0423FF731AF144890F8781081
:10133000FFF7D2F886B2114991F878100F4A565447
:101340003112104690F87800401C1154104690F865
:101350007800401C114681F87800002405E0074918
:10136000085D00F06BF9601CC4B2044890F8780086
:10137000A042F4DABDE8F08154090020E80600201C
:101380003333534088040020300400205C040020E4
:1013900004040020D803002000000C406403002057
:1013A0006C03002074030020240500201805002091
:1013B0000C050020850300200406002030060020D4
:1013C000000080BF0000C84200800A409005002055
:1013D00010B5534890F87A00032806D006282AD082
:1013E000102850D0112825D17AE04D4840794C4939
:1013F000097940EA01204A49A1F87C00002004E074
:101400000021474A1154411CC8B2454991F879104E
:101410008142F5DA0020424981F8780081F88200A3
:10142000C1F8900000213E4880F8951080F8941093
:10143000FFF722FE71E001203949A1F87C00042069
:1014400081F8780000F022FEFFF780F8002004E029
:101450000021334A1154411CC8B2314991F8791026
:101460008142F5DA00202E4981F8780081F8820067
:10147000C1F8900000212A4880F8951080F8941057
:10148000FFF7FAFD49E02649087900EBD0714910D1
:10149000234AA2F87C100520114681F8780000F05C
:1014A000F5FDFFF753F8002004E000211C4A115419
:1014B000411CC8B21A4991F879108142F5DA00202E
:1014C000174981F8780081F88200C1F89000002166
:1014D000134880F8951080F89410FFF7CDFD1CE0BC
:1014E000002004E000210E4A1154411CC8B20C49EE
:1014F00091F879108142F5DA0020094981F87800E5
:1015000081F88200C1F890000021054880F895100C
:1015100080F89410FFF7B0FD00BF00BF10BD0000C1
:10152000E806002010B5434890F8820001287FD1DA
:10153000404890F8950001287AD13E4800783E490D
:101540000978884254D13B4840783A4981F87A007A
:101550000846C078897840EA0120364981F87B0046
:10156000084690F87810FEF7B7FF08B9012000E0B0
:101570000020304981F88000084690F8780081F812
:101580007900084690F88000012801D1FFF720FF7C
:101590000020284981F88000084690F8790091F8E9
:1015A0007810884203DD234890F8790002E0214852
:1015B00090F878001F4981F87900002004E00021AC
:1015C0001C4A1154411CC8B21A4991F87910814241
:1015D000F5DA0020174981F8780081F88200C1F817
:1015E00090000021134880F8951080F8941019E0BD
:1015F000002004E000210F4A1154411CC8B20D49DB
:1016000091F879108142F5DA00200A4981F87800D2
:1016100081F88200C1F890000021064880F89510FA
:1016200080F894100020034900E001E081F879007F
:1016300010BD0000E80600205409002010B5044643
:10164000104800684FF6E071084040F080000D49F6
:10165000086000BF80210C4800F080FC0128F9D10F
:101660002146094800F0F2FC00BF0821064800F0BE
:1016700075FC0128F9D00348006820F09F0001495B
:10168000086010BD00000B400000034001490860E5
:10169000704700008800404210B502460C4BD868E5
:1016A00020F003001043D860586820F4706040EACE
:1016B00001205860074B1B6843B10123054C241DD2
:1016C00023600023034C883CC4F88C3010BD00001C
:1016D000000002408800404238B50020009000BF62
:1016E000212000F069F905460098401C0090009800
:1016F000B0F5C06F01D2002DF2D0212000F05CF9CE
:1017000008B1012400E00024204638BD01490860EA
:1017100070470000880140420146044AD06820F02A
:10172000F00040EA0110D060704700000000024065
:101730000146034AD06820F440700843D0607047E7
:10174000000002402DE9FC4F0146DFF864B2DBF8EF
:101750000CB00BF0020BBBF1000F01D0954B00E079
:10176000944BDFF84CB2DBF80CB00BF0010BBBF183
:10177000000F00D05B081C46DFF834B2DBF80CB079
:101780000BF0040BBBF1000F0DD0DFF824B2DBF837
:1017900004B0CBF3032B0BF1010BCDF800B0DDF857
:1017A00000B004FB0BF4DFF808B2DBF80CB0CBF3AD
:1017B000012BBBF1000F06D0BBF1010F08D0BBF12C
:1017C000020F28D122E0DFF8ECB1C1F800B027E029
:1017D000DFF8DCB1DBF80CB04FF0080E0EEA1B1B93
:1017E000BBF1000F01D1A0460DE0DFF8C4B1DBF87A
:1017F0000CB0CBF3021B0BF1010B4FF0010E0EFAF4
:101800000BFEB4FBFEF8C1F8008009E04FF4004B7A
:10181000C1F800B004E049F6404BC1F800B000BF89
:1018200000BFDFF88CB1DBF810B00BF0020BBBF19E
:10183000000F01D05F4D00E05E4DDFF874B1DBF8C2
:1018400010B00BF0010BBBF1000F00D06D082F465C
:10185000DFF85CB1DBF810B00BF0040BBBF1000F4C
:101860000DD0DFF84CB1DBF804B0CBF3031B0BF168
:10187000010BCDF800B0DDF800B007FB0BF7B9465F
:10188000DFF82CB1DBF810B00BF0100BBBF1000F40
:1018900001D04FEA5909C1F80490DFF814B1DBF820
:1018A00018B04FEA1B1000F0080BBBF1000F02D17B
:1018B000DFF800C10BE000F0070B0BF1010B4FF05C
:1018C000010E0EFA0BF0DFF8ECB0BBFBF0FCC1F838
:1018D0000CC0DFF8DCB0DBF8180000F0080BBBF13F
:1018E000000F04D1DFF8CCB0CDF804B00DE000F06B
:1018F000070B0BF1010B4FF0010E0EFA0BF0DFF8A6
:10190000B4B0BBFBF0FBCDF804B0DDF804B0C1F817
:1019100010B0DFF89CB0DBF814B00BF0030BBBF198
:10192000000F06D0BBF1010F05D0BBF1020F06D1AD
:1019300003E01E4605E02E4603E0264601E03E4653
:1019400000BF00BFDFF868B0DBF814B0CBF3011BB9
:10195000BBF1000F06D0BBF1010F06D0BBF1020FA7
:1019600008D105E04FF4004206E049F6404203E0AA
:10197000324601E0624600BF00BFDFF834B0DBF85A
:1019800014B04FEA1B2000F0080BBBF1000F01D18F
:10199000924609E000F0070B0BF1010B4FF0010E2E
:1019A0000EFA0BF0B2FBF0FAC1F808A0BDE8FC8F0C
:1019B0000000024000127A0010B5014601F0E00379
:1019C000202B02D1074B1A6801E0074BDA6B01F0BC
:1019D0001F040123A34013400BB1012000E00020AD
:1019E00010BD00000000024000800D400D498968D4
:1019F00021F003010B4A9160012802D002280ED188
:101A000006E00849896841F00101064A916007E053
:101A10000449896841F00301024A916000E000BF77
:101A200000BF70470000024038B50020009000BFA2
:101A30002220FFF7C1FF05460098401C0090009847
:101A4000B0F5C06F01D2002DF2D02220FFF7B4FF15
:101A500008B1012400E00024204638BD29B1064A1F
:101A6000D2690243044BDA6104E0034AD26982433B
:101A7000014BDA61704700000000024010B5FEF72C
:101A8000E1FE042809D10748FEF7B4FD0548407976
:101A9000012806D10349087303E0002001490873B7
:101AA000086010BD3006002070B50446607F012834
:101AB0003ED0FEF731FFA1786054A078205C1F492A
:101AC0008978C9008840A1880843A080A0780128AF
:101AD00029D1A08800F47840B0F5784F01D00120DA
:101AE00000E000202073207B18B9A088C043401C70
:101AF000A080207B40B9A1884842FEF72FFB054615
:101B00002169FEF7F9FA06E0A088FEF730FB0546EA
:101B10002169FEF7F1FAA0600949A06888660020F3
:101B2000A080A07008E0A078401CC0B2A07003E0C4
:101B30000448A0600249886670BD000004060020C9
:101B4000900500200000C84130B5204CE46804F046
:101B50000204022C01D11E4800E01D481B4CE46821
:101B600004F0010404B140080146184CE46804F094
:101B70000404042C05D1154C6468C4F30324631CCD
:101B80005943124CE468C4F3012424B1012C06D05B
:101B9000022C13D10DE00E4C0E4D2C6013E00B4CBB
:101BA000E468C4F30314641CB1FBF4F2094C226032
:101BB00009E04FF40044074D2C6004E049F640442E
:101BC000044D2C6000BF00BF30BD0000000002408B
:101BD00000127A008803002000B510200749C86170
:101BE0000020C860486088600861486188610862B8
:101BF00048628862C862FFF7A7FF00BD000002408C
:101C00000246104B586A104B9A4205D120F0FF0053
:101C1000084340F0807012E00C4B9A4206D120F449
:101C20007F4040EA012040F0007008E0084B9A42F3
:101C300005D120F47F0040EA014040F08060014B74
:101C400058627047000002400000074000800740D3
:101C500000000840CA43426570470A46C16812B195
:101C600041F0010101E021F00101C160704730B590
:101C70000C8804604C8844608C888460CC880D8912
:101C80002C444D892C448D892C44CD896319C36023
:101C90004C8A0D8A04EB05148D8A2C44CD8A621976
:101CA000026530BD0021018041808180C1800181B9
:101CB00041818181C181018241828182C1827047DB
:101CC0000021C16001604160816001624162816206
:101CD000C162016341638163C163016641668166DC
:101CE000C166016141618161C161016741678167CD
:101CF000C167016441648164C164016541658165B6
:101D0000C165704710B51346826D0BB10A4300E000
:101D10008A43826510BD704710B502211A48FFF74B
:101D200099FF1A48FEF766FC1948FEF763FC19484C
:101D3000FEF760FC1848FEF75DFC1848FEF75AFCF9
:101D40001748FEF757FC16480C30FEF753FC1548B1
:101D5000FEF726FF1448FEF723FF1448FEF7F4FAB7
:101D60001348FEF7F1FA1348FEF7EEFA1248FEF7B1
:101D7000EBFA1248FEF7E8FA1148FEF7E5FA1148C7
:101D8000FEF7E2FA10BD00000000074078050020D1
:101D9000A80500204805002054050020600500200B
:101DA00040060020A0030020BC030020B404002053
:101DB000D803002004040020300400205C0400202C
:101DC00088040020E004002010B502210748FFF736
:101DD00041FFBFF36F8F064800F03AF9054800F065
:101DE00037F9054800F034F910BD000000800740C5
:101DF00024050020180500200C05002010B51D4901
:101E0000086A1D49FEF7F0F907D8F0241B491C4861
:101E10004161F0201A49487026E01649086A1949BC
:101E2000FEF7E2F90DD81349086A1749FEF7D2F90F
:101E300007D8782415491248416178201049487024
:101E400012E00C49086A0021FEF7CEF90CD80949C6
:101E5000086A0C49FEF7BEF906D84B240C4908481D
:101E600041614B200649487005484169C1622046DE
:101E700010BD0000E00400200AD7134000002041FC
:101E8000540900200AD7933F5EBA11400000A040D9
:101E90000000484010B51021174800F067F80128ED
:101EA00028D11021144800F049F8134800F0CAF86E
:101EB000124991F87810114A5054104690F8780061
:101EC000782804D10020114681F8780006E00B48FC
:101ED00090F87800401C094981F8780001200749F2
:101EE00081F882000121054880F894100020034900
:101EF000C1F8900010BD000000000340E80600207B
:101F000002460B4B986A0B4B9A4205D140F0807009
:101F100020F0FF00084308E0074B9A4205D140F04B
:101F2000007020F47F4040EA0120014B9862704726
:101F3000000002400000034000800340426C0A435E
:101F40004264704721B1026B42F00102026304E077
:101F5000026B4FF6FE731A400263704702469369A4
:101F60000B400BB1012000E0002070470246136CCB
:101F70000B400BB1012000E0002070471AB1836BC9
:101F80000B43836302E0836B8B43836370470000E2
:101F90002DE9F04F87B004460D4601A8FFF7D2FBAC
:101FA000019F2548866A2548844206D106F007012C
:101FB00001208840B7FBF0F708E02148844205D1B2
:101FC000C6F3022101208840B7FBF0F7286880089B
:101FD000B7FBF0F94FEA991809F03F0AB8000AEB8D
:101FE0008811B0FBF1F0069029680698401AC001EC
:101FF000B0FBF1FBBBF1020F02DC1BF1020F03DAB5
:10200000002007B0BDE8F08FC4F82480C4F828A0F1
:10201000E66AA888E988084329890843698908434A
:102020000643E662266B4FF680708643A889064316
:1020300026630120E5E700000000024000000340A5
:10204000008003400146086880B270470160704715
:102050000D4909784906090E0B4A11701146097895
:1020600001F007011170416809688268114009B1E7
:10207000012100E0002101700178034A1278114328
:10208000014A11707047000084030020254991F82F
:102090007B003DE0082804D0092811D00A282DD162
:1020A0001DE0204991F87810491C1E4A515C92F8B5
:1020B00078201C4B9A5C41EA02211B4A11701DE0FA
:1020C000184991F87810491C164A515C92F878200A
:1020D000144B9A5C41EA0221134A51700EE01149F7
:1020E00091F87810491C0F4A515C92F878200D4BFA
:1020F0009A5C41EA02210C4A917000BF00BF094975
:1021000091F87810891C074A82F87810411CC8B2EF
:10211000044991F87B10034AB2F87C2011448142B3
:10212000B8DC7047E80600208503002000280DDB9E
:1021300000BF00BF00F01F02012191404209920040
:1021400002F1E022C2F8001100BF00BF704700009A
:1021500010B5002804DB4A07130E054A135406E0A5
:102160004A07140E034A00F00F031B1FD45410BD7E
:1021700000E400E018ED00E002E008C8121F08C10A
:10218000002AFAD170477047002001E001C1121FF8
:10219000002AFBD17047000000B591B001214FF03B
:1021A0008170FFF75BFC6846FEF758FFBF20ADF873
:1021B000000000208DF80A0069461948FEF750FE1D
:1021C00000200A900B900C900D900E900F901090A4
:1021D0000AA8FEF761F900208DF80C004FF440507A
:1021E000ADF8220000208DF80D00ADF80E008DF83E
:1021F00010000590072009900020ADF81800ADF8F8
:102200001A00ADF81C00ADF81E008DF8200003A8E0
:10221000FEF762F80120FEF745F811B000BD00009E
:1022200000000C400EB501214FF00170FFF716FCC5
:102230006846FEF713FF0120ADF8000000208DF87E
:102240000A0069460648FEF70BFE0020FEF716FA64
:102250000120FEF705FA40F6FF70FEF719FA0EBDF1
:1022600000800C400121054880F8201000BF034881
:1022700090F820000028FAD17047000030060020B6
:1022800010B501210820FFF7E9FB1820FEF705F83B
:1022900010BD000000B585B001211E48FFF7DEFB30
:1022A00002A8FEF7DBFE00208DF80B008DF80C0075
:1022B00001208DF80D008DF80E0003208DF811001F
:1022C00001208DF812000320ADF8080002208DF8DF
:1022D000100001208DF80A008DF80E0002A90E48AA
:1022E000FEF7BEFDFEF700FB2720009000208DF8D2
:1022F00004006846FEF716FB0120FEF7E7FA00210E
:102300003220FEF70FFCE120FEF716FCFEF71CFC66
:1023100005B000BD0004800000800B4010B5002116
:102320000F20FFF715FF0F20FFF700FF01210E2000
:10233000FFF70EFF0E20FFF7F9FE02210620FFF740
:1023400007FF0620FFF7F2FE10BD0000FEF70AFCB3
:1023500000BF15480068BF28FBD1FEF79FF9012098
:102360001249087109E0002011490870AA2048703C
:10237000022010490870AA2048700C4800790128F2
:10238000F1D001200A490870FF2048700120094956
:102390000870FF20487005E0FFF7BDFCFFF76EFBFB
:1023A000FFF7C0F8F8E70000800300207805002060
:1023B000A0030020BC0300200EB501214806FFF752
:1023C0004DFB01214807FFF749FB01214805FFF7B5
:1023D00045FB01218805FFF741FB0121C805FFF7F7
:1023E0003DFB01210806FFF739FBFF20ADF8000097
:1023F00000208DF802008DF8080001208DF80A00F9
:102400008DF8030069462748FEF72AFD4FF4C060A7
:10241000ADF8000069462448FEF722FD0420ADF81F
:10242000000069462148FEF71BFD4020ADF8000082
:1024300069461F48FEF714FDCE20ADF800000120CC
:102440008DF8020000208DF8080001208DF80A00A8
:102450008DF8090069461748FEF702FD0F20ADF818
:10246000000001208DF8020069461348FEF7F8FCD1
:1024700001211148FEF7E4FD02210F48FEF7E0FDBF
:1024800004210D48FEF7DCFD08210B48FEF7D8FDBE
:102490004FF48070ADF8000069460348FEF7E0FC99
:1024A0000EBD000000800A4000000B4000800B4081
:1024B00000000C4000800C4000800E4010B5012050
:1024C000FFF794FA03E009210220FFF7E5F8FFF790
:1024D000ABFA0128F7D11048C06840F002000E495D
:1024E000C8600846406840F4106048600120FFF76B
:1024F000CDF800BFFFF7F0F80128FBD10020FFF76F
:102500000BF90120FFF702F94FF48070FFF710F983
:10251000FFF71AFB10BD00000000024010B56FF07D
:1025200002006749C8604110654801614900416186
:102530006FF00C018161081D6249C860411061485B
:1025400001616FF00C0141618910816108205E49D1
:10255000486004205D49486002205D4948600020D1
:102560005C49087010205C49087020205B490870A5
:1025700030205B49087040205A49087050205A4961
:1025800008707020594908705948524948625249A8
:102590004862584851494862514948625149486225
:1025A0005548514948625149486240F6FF705349C5
:1025B000086353484863534888665349D1F88400F8
:1025C000FDF7F3FD4D4981F86C004F49D1F88000CB
:1025D000FDF7EBFD494981F86D004B49D1F88800C2
:1025E000FDF7E3FD454981F86E00012081F86F0099
:1025F000002081F85F004AF6C871404801620A2055
:102600003E4981F85C00012081F83C0042F228300C
:102610003E498860012008714AF6C8703C498860CC
:10262000012008714FF487703A4988605A203A496E
:10263000886040F24650394988604FF4E16038497B
:10264000886046F678103749886037492B48C1645E
:10265000012181651421C1620020284981F85E00B2
:102660000A20324988600120087109212F488161C0
:1026700041624FF076502E4908610A212C48816250
:10268000012180F824102B482B4948602B494860D1
:102690002B482C494860001527498860401027497D
:1026A00088600420274988600020274981F882003B
:1026B00010212548C0F89810FF201349087010BD5C
:1026C000A0030020BC030020640300206C03002052
:1026D00074030020D80300200404002030040020EC
:1026E0005C04002088040020B4040020E0040020E2
:1026F000020B303C610C463C6740533A9005002089
:102700000000A0410000C8415409002078050020C5
:10271000300500203C05002048050020540500201D
:10272000600500206C050020603D08003006002098
:102730000406002000000B400C05002018050020B6
:1027400000800B4024050020E806002000B587B07B
:1027500001218803FFF782F91248FFF7B1FA00213F
:102760001048FFF74DFA01A8FFF79CFA2B20ADF8AF
:102770000600CA20ADF808000020ADF80A00ADF848
:102780000C00ADF8120001A90648FFF770FA01220B
:1027900002210448FFF7B6FA01210248FFF75DFA6B
:1027A00007B000BD0000074000B587B00121C80395
:1027B000FFF754F91248FFF783FA00211048FFF79A
:1027C0001FFA01A8FFF76EFA0820ADF80600B12045
:1027D000ADF808000020ADF80A00ADF80C00ADF827
:1027E000120001A90648FFF742FA0122022104481B
:1027F000FFF788FA01210248FFF72FFA07B000BD62
:102800000080074000B58BB08020ADF8200001208B
:102810008DF8220000208DF8280001208DF82A0074
:102820008DF8290008A92D48FEF71AFB012188051B
:10283000FFF714F901218805FFF710F900208DF842
:1028400017008DF818008DF819008DF81A008DF812
:102850001B0002208DF81C0003208DF81D000120B4
:102860008DF81E0000208DF816004020ADF81400F1
:1028700005A91A48FEF7F4FA01208DF81600202069
:10288000ADF8140005A91548FEF7EAFA0121402029
:10289000FFF7E4F800211248FFF732FB4FF416402F
:1028A00001906020ADF808000020ADF80A00ADF8F6
:1028B0000C00ADF80E004FF44070ADF8100001A907
:1028C0000748FFF765FB012210210548FFF756FB7B
:1028D00001210348FFF736FB0BB000BD00000B40A1
:1028E0000000034070470000182900080000002085
:1028F0006003000078210008782C000860030020A5
:102900002C00000078210008A42C00088C03002073
:10291000B40A00008821000808B5009002E0009980
:10292000491E009100990029F9D108BD70B50246F1
:102930000B46CC48CC4E30613046006800F0380081
:10294000411C012B01D1580200E000200143C64880
:102950000160426041F4E070C34E30603046C068B0
:102960003046C0683046C0683046C56801F038015E
:102970000160002030619007C40EE540E8B270BDF0
:1029800070B502460B46B748B74E30613046006816
:1029900000F03800411C012B01D1580200E000205A
:1029A0000143B1480160426041F4E070AE4E3060D6
:1029B0003046C0683046C0683046C0683046C5689A
:1029C00001F0380101600020306102F00200C40013
:1029D000E540A8B270BD30B502460B46A14CA24DF1
:1029E0002C612C46246804F03804611C012B01D1B1
:1029F0005C0200E0002421439B4C2160626041F4B2
:102A0000E074994D2C602C46E4682C46E4682C4612
:102A1000E4682C46E06801F03801216000242C6154
:102A200030BD2DE9F04106460F468E488E490861BB
:102A30000846006800F03800441C012F01D14815F9
:102A400000E00020044388480460002522E070195B
:102A5000854948600020886044F488640846046022
:102A60000520FFF759FF44F400547F48046049F6FD
:102A70004040FFF751FF24F480647B480460052048
:102A8000FFF74AFF24F40154774804600120FFF760
:102A900043FF2D1D102DDAD304F038047248046072
:102AA0000020714908614FF47A60FFF735FFBDE8F7
:102AB000F08170B506466B486B49086108460068AE
:102AC00000F03800441C022E01D1481500E000201F
:102AD000044365480460002522E063484560002007
:102AE0006149886044F44464084604600520FFF7A7
:102AF00013FF44F400545C48046049F64040FFF77B
:102B00000BFF24F48064584804606420FFF704FF3E
:102B100024F42154544804600120FFF7FDFE2D1DCC
:102B2000102DDAD304F038044F48046000204E49D9
:102B300008614FF47A60FFF7EFFE70BD2DE9F041B8
:102B400005460E461746474847490861084600684B
:102B500000F0380444F00104012E01D1481500E0D2
:102B600000200443404804604560876044F4825478
:102B700004600520FFF7D0FE44F400543A48046096
:102B80000A20FFF7C9FE44F080043748046028207B
:102B9000FFF7C2FE24F080043348046024F480541C
:102BA00004600520FFF7B8FE24F401542E480460A9
:102BB0000120FFF7B1FE04F038002B490860002027
:102BC0000861BDE8F0812DE9F047054688461446C6
:102BD000A807C70EBC40FF2000FA07F6414628466A
:102BE000FFF7F9FE814629EA060004EA060140EAF9
:102BF000010241462846FFF7A1FFBDE8F0872DE915
:102C0000F04705468846144605F00200C700BC4060
:102C10004FF6FF7000FA07F641462846FFF7DBFE45
:102C2000814629EA060004EA060140EA010241461B
:102C30002846FFF783FFBDE8F0870CB500BF4FF0D3
:102C400000600521019107E00199890050F82110E9
:102C500000910199491E019101990029F4D100BF09
:102C60000CBD00005155AA8A00800140014908604E
:102C700070470000008001400000000000000000DC
:102C80000000000000000000000000000000000044
:102C90000000000000000000000000000000000034
:042CA00000127A00A4
:04000005080000C12E
:00000001FF
