:020000040800F2
:10000000400E0020D5000008DD000008DF000008D9
:10001000E1000008E3000008E5000008000000001F
:10002000000000000000000000000000E7000008E1
:10003000E900000800000000EB000008ED000008E7
:10004000EF000008EF000008EF00000800000000CB
:1000500000000000EF0000087D1E0008EF0000080F
:10006000EF00000800000000EF000008EF000008AB
:10007000EF00000800000000E11C0008991D0008C6
:10008000EF000008EF00000800000000EF0000088B
:10009000EF00000800000000000000000000000069
:1000A000000000000000000000000000EF00000859
:1000B000EF000008EF000008EF000008EF00000864
:1000C000DFF80CD000F0D2F80048004735230008D4
:1000D000400E00200648804706480047FEE7FEE73E
:1000E000FEE7FEE7FEE7FEE7FEE7FEE7FEE7FEE7E8
:1000F000991A0008C100000880EA010210B502F058
:100100000043400022D04A001FD0010E01EB1261D3
:10011000C0F35600C2F3560240F4000042F400025D
:10012000A0FB022000047F39140400D0401C50EAD8
:10013000124001D44000491EC2B20C0604EBD0109C
:10014000401C4008802A02D003E0002010BD20F0AF
:100150000100002900DA0020184310BDC10F80EA19
:10016000E0700844CA079623002100F050B8962397
:100170000022114600F04BB800F0004220F0004091
:10018000C10DC0F3160040F400007F2901DA002001
:100190007047962903DCC1F19601C84001E0963909
:1001A0008840002AF4D04042704720F00040C10D42
:1001B000C0F3160040F400007F2901DA00207047E8
:1001C000962903DCC1F19601C840704796398840F2
:1001D00070470000002801DBC0F10040002901DB6E
:1001E000C1F1004181427047002801DBC0F10040AD
:1001F000002901DBC1F10041884270470029A8BFF6
:100200007047401C490008BF20F00100704710B43F
:10021000B0FA80FC00FA0CF050EA010404BF10BCF4
:10022000704749B1CCF1200421FA04F411FA0CF121
:1002300018BF012121430843A3EB0C01CB1D4FEA5A
:1002400000614FEA102042BF002010BC704700EB55
:10025000C35010440029A4BF10BC7047401C490083
:1002600008BF20F0010010BC70470000064C074D8D
:1002700006E0E06840F0010394E807009847103476
:10028000AC42F6D3FFF720FF2029000850290008D0
:1002900040F2BF0CC2F2000C604740F2553CC2F283
:1002A000000C60470146054A106811B140F001009A
:1002B00001E020F00100014A106070470080084012
:1002C0000148806970470000008008400148006ACA
:1002D000704700000080084010B5144B1A68144B9A
:1002E0001A4003784478234444882344047903EB78
:1002F000041384892344448A2344C48A2344047E07
:1003000003EB44631A44094B596821F40031037D1F
:1003100001EB4341C389054C2361038AA3608368D1
:10032000A36223461A60596010BD00000080084097
:100330000300FFF10348006840F002000149086033
:10034000704700000080084070B504464E480068C1
:1003500020F4F8704C49086008460068217808438A
:1003600049490860FFF7E6FF002505E0681C80B2F8
:1003700005460A2800D170BDFFF7A8FF00F0040071
:100380000028F3D0FFF79CFF81B2228DA01C20F83B
:100390001210228D30F81200A1690844A0613B4878
:1003A0000068BF2836D10A21A069B0FBF1F0A08314
:1003B000207810B1207810281BD13548808BA18B74
:1003C00088420ADAA18B324A928B881AFFF7C6FE5E
:1003D0000646616AFFF790FE09E02D49898BA28BE2
:1003E000881AFFF7BBFE0646616AFFF785FE2062AA
:1003F00007E0A08BFFF7BBFE0646616AFFF77CFEB5
:1004000020622078011101208840224909680843B0
:1004100020490860208D092809D120780111012088
:1004200088401A49096808431849086004E01748D9
:100430000068004315490860208D092804D16188AF
:10044000A069401AA06107E0208D401CA11C31F872
:100450001000A269101AA061208D092802D1002085
:10046000608005E00022208D401CA11C21F8102096
:10047000208D092802D10020208502E0208D401C1B
:10048000208500BF77E70000008008407C03002043
:10049000B40400208003002010B5D0E902342344C6
:1004A00004692344446919190479036803EB04734C
:1004B000048B03EB44531944044A054B1A43054B80
:1004C0001B6893430B44034C236010BD00001EF0D7
:1004D0000000E1010080084030B502460B464FF6AF
:1004E000FF7010E012F8014B6040002109E000F0BD
:1004F000010424B14AF2010484EA500000E04008FB
:10050000491C0829F3DB1C1EA3F10105EBB2E9D15C
:1005100030BD000010B500F037F900F002000228ED
:100520000CD0094800F013F80748203890F825004F
:10053000012808D104492039487704E00020024905
:1005400020394877086210BD2406002070470179E1
:1005500001290ED10168491C0160002141718268A6
:100560000168914205D30021016001214171002100
:1005700001717047C0F30721054A92F87820044BB7
:100580009954194691F87810491C58547047000046
:10059000E806002070B5044606492046FFF7ACFD8A
:1005A00006463046FFF7E8FD05B22846FFF7E2FFB2
:1005B00070BD00000000C8420146054A106811B134
:1005C00040F0080001E020F00800014A1060704788
:1005D000000009400146034A106820F00200084468
:1005E00010607047000009400149886070470000B2
:1005F0000000094070B572B62C4C00212046FFF770
:1006000047FE401C00284ED0002509E004EB850081
:100610000021FFF73DFEC1B225484155681CC5B217
:100620000B2DF3DB2C3400250AE004EB85000021C0
:10063000FFF72EFEC1B21E480B304155681CC5B2F3
:10064000062DF2DB183400250AE004EB85000021BA
:10065000FFF71EFEC1B2164811304155681CC5B2E5
:10066000092DF2DB243400250AE004EB850000218B
:10067000FFF70EFEC1B20E481A304155681CC5B2D4
:10068000082DF2DB203400250AE004EB8500002170
:10069000FFF7FEFDC1B2064822304155681CC5B2C5
:1006A000012DF2DB241D62B670BD000000B0000811
:1006B000180A002010B500F083F8042800D110BDFE
:1006C00000F052FA042800D1F9E700F0D7F9CC2065
:1006D00000F0A8FA042800D1F1E7442000F0A2FAC3
:1006E000042800D1EBE700F03FFA042800D1E6E748
:1006F00000F0C4F9CC2000F095FA042800D1DEE720
:10070000BE2000F08FFA042800D1D8E700F096F858
:10071000042800D1D3E700F091F8042800D1CEE7F7
:100720000520CCE710B5034600F022F818409842A7
:1007300001D1012400E00024204610BD0146054AF5
:10074000906811B140F0800001E020F08000014A83
:1007500090607047000005400020044988600861EF
:100760000120886100200860486070470000054053
:1007700004498969034A126941EA0220C14340EAF7
:1007800001407047000005400148C068C0B2704792
:100790000000054010B5094B9968037903F0200368
:1007A00013B141F0200101E021F02001034B9960D9
:1007B00002681A60130A014C636010BD0000054016
:1007C00010B50021322000F0E5F807E001211948BA
:1007D0000175407D012801D1042010BD1648FFF7A6
:1007E000A1FF0028F2D00020124908610021114821
:1007F0004175017501F02AFDF02000F0D5F807E001
:1008000001210C480175407D012801D10420E4E755
:100810000948FFF787FF0028F2D00020054908614A
:10082000002104484175017500F0C6F801F00EFD85
:100830000520D2E730060020004030A210B500218C
:10084000322000F0A7F807E001214F480175407DF4
:10085000012801D1042010BD4C48FFF763FF002898
:10086000F2D00020484908610021474841750175D0
:10087000962000F099F807E0012143480175407D7A
:10088000012801D10420E6E74048FFF74BFF00288C
:10089000F2D000203C49086100213B4841750175B8
:1008A00000F08AF801F0D2FC0021322000F072F84A
:1008B00007E0012134480175407D012801D1042061
:1008C000C9E73248FFF72EFF0028F2D000202E495A
:1008D000086100212C4841750175E12000F064F8A1
:1008E00007E0012128480175407D012801D104203D
:1008F000B1E72648FFF716FF0028F2D00020224972
:1009000008610021204841750175E12000F04CF894
:1009100007E001211C480175407D012801D1042018
:1009200099E71A48FFF7FEFE0028F2D0002016498A
:10093000086100211448417501750121332000F040
:1009400029F807E0012110480175407D012801D1F7
:10095000042080E70D48FFF7E5FE0028F2D00020D4
:10096000094908610021084841750175082000F017
:1009700029F801F06BFC064800F0F6FF00F01CF8C7
:1009800001F064FC052066E730060020004030A23C
:100990000406002020F001020A43024B5A61902213
:1009A0009A61704700000540024948611021014AE0
:1009B00091617047000005404020014988617047FF
:1009C0000000054040F02001014A9161704700009D
:1009D0000000054010B572B601F062FD01F0DEFCCA
:1009E00001F0CEFB01F0CEFE01F0FAFE01F00EFCAC
:1009F00001F044FC01F022FF01F036FC01F082FC22
:100A000001F08CFF01F07CFDFFF7F4FD62B610BD34
:100A10001949096882691143174A11604178037ABC
:100A200001229A401140194101290AD1124909684D
:100A3000037800F10C0252F8232011400E4A116095
:100A400005E00D490968826911430B4A116040F2C3
:100A50006542416891420BD100214160017A07292A
:100A600002D10021017206E0017A491C017202E004
:100A70004168491C4160704700800E4010B500215C
:100A80003220FFF787FF07E0012135480175407DDF
:100A9000012801D1042010BD3248FFF743FE002891
:100AA000F2D000202E49086100212D4841750175C2
:100AB000E120FFF779FF07E0012129480175407D1A
:100AC000012801D10420E6E72648FFF72BFE002885
:100AD000F2D00020224908610021214841750175AA
:100AE000F020FFF761FF07E001211D480175407DFF
:100AF000012801D10420CEE71A48FFF713FE002891
:100B0000F2D0002016490861002115484175017591
:100B100001213320FFF73EFF07E001211048017556
:100B2000407D012801D10420B5E70E48FFF7FAFD0A
:100B30000028F2D000200A490861002108484175C8
:100B4000017501F083FB0820FFF73CFF01F07EFBFD
:100B5000FFF7E0FCFFF730FF01F078FB05209AE794
:100B600030060020004030A210B500213220FFF7EF
:100B700011FF07E0012129480175407D012801D1BD
:100B8000042010BD2648FFF7CDFD0028F2D000203C
:100B9000224908610021214841750175B420FFF701
:100BA00003FF07E001211D480175407D012801D1A7
:100BB0000420E6E71A48FFF7B5FD0028F2D0002030
:100BC000164908610021154841750175FFF7F4FECB
:100BD00001F03CFB01213320FFF7DCFE07E001219F
:100BE0000E480175407D012801D10420C9E70C4859
:100BF000FFF798FD0028F2D0002008490861002185
:100C00000648417501750820FFF7DCFE01F01EFB68
:100C1000FFF7D2FE01F01AFB0520B2E730060020F4
:100C2000004030A210B5044600213220FFF7B2FE8A
:100C300007E0012124480175407D012801D10420ED
:100C400010BD2248FFF76EFD0028F2D000201E499B
:100C5000086100211C4841750175A520FFF7A4FE1D
:100C600007E0012118480175407D012801D10420C9
:100C7000E6E71648FFF756FD0028F2D0002012499B
:100C8000086100211048417501752046FFF78CFE70
:100C900007E001210C480175407D012801D10420A5
:100CA000CEE70A48FFF73EFD0028F2D000200649B3
:100CB00008610021044841750175FFF77DFE01F0D0
:100CC000C5FA0520BCE7000030060020004030A235
:100CD0002DE9FE4F4768D0F808C0D0F80C80D0F856
:100CE0001090D0F814A0CDF808A0D0F818A0CDF836
:100CF00004A0D0F81CA0CDF800A0002201230325F9
:100D00004FF001160C885FE004F0010ABAF1000F01
:100D100055D027EA030A91F802B00BFA02FB4AEA1F
:100D20000B0791F808A04FEA420B0AFA0BFA2CEADB
:100D3000050B4AEA0B0C28EA030A91F80AB00BFAF1
:100D400002FB4AEA0B0829EA060A91F803B002F10D
:100D5000100E0BFA0EFB4AEA0B0A91F804B00BFADC
:100D600002FB4AEA0B09DDF808A02AEA060A91F814
:100D700005B00BFA0EFB4AEA0B0A91F806B00BFA23
:100D800002FB4AEA0B0ACDF808A091F809A04FEA45
:100D9000420B0AFA0BFADDF804B02BEA050B4AEA1B
:100DA0000B0ACDF804A0DDF800A02AEA030A91F8A6
:100DB00007B00BFA02FB4AEA0B0ACDF800A05B0071
:100DC000AD007600521C6408002C9DD1DFF8C4A051
:100DD000504502D14FF01F0A01E04FF0000A27EA08
:100DE0000A0AC0F804A0DFF8ACA0504502D14FF0C9
:100DF0001F0A01E04FF0000A2CEA0A0AC0F808A016
:100E0000DFF890A0504502D14FF01F0A01E04FF0EB
:100E1000000A28EA0A0AC0F80CA0DFF878A05045BA
:100E200002D14FF01F0A01E04FF0000A29EA0A0A36
:100E3000C0F810A0DFF85CA0504502D14FF01F0BA6
:100E400001E04FF0000BDDF808A02AEA0B0AC0F819
:100E500014A0DFF840A0504502D14FF01F0B01E075
:100E60004FF0000BDDF804A02AEA0B0AC0F818A026
:100E7000DFF820A0504502D14FF01F0B01E04FF0EA
:100E8000000BDDF800A02AEA0B0AC0F81CA0BDE8A0
:100E9000FE8F000000000C400146086870470246C3
:100EA00013680B400BB1012000E0002070470000E8
:100EB0000268054B984201D11F2300E000230B4339
:100EC0009A4302607047000000000C4002680A4329
:100ED000044B984201D11F2300E000239A43026093
:100EE0007047000000000C404FF6FF7101800021A8
:100EF0008170C170017141718171C1710172417262
:100F0000817270472DE9F041C2480078C2490870EB
:100F1000084690F87A00032806D0062808D0102842
:100F20000AD0112810D10BE00320BB4948700BE018
:100F30000620B949487007E01020B749487003E01F
:100F40001120B549487000BF00BFB34890F87A003F
:100F5000032806D0062810D010281CD011282FD125
:100F600027E0AD4991F87C104906080EAA4988701F
:100F70000321A94A82F8781022E0A74890F87B0064
:100F80000012A5498870084690F87B00C8700420BC
:100F900081F8780014E0A04890F87B0000129E4988
:100FA0008870084690F87B00C870042081F87800AB
:100FB00006E0232098498870032081F8780000BF5C
:100FC00000BF954890F87A00102817D19248B0F8E1
:100FD0007C000012904991F878108F4A50541046C6
:100FE00090F87C1090F87800401C1154104690F84E
:100FF0007800801C114681F87800E4E0864890F87B
:101000007A00032804D0844890F87A000628F4D1A6
:10101000814890F87B40CCE00D2C0BD2DFE804F047
:10102000B9070B10151A1F24494D525782007B48EF
:10103000FFF7B0FAADE07A49086AFFF7ABFAA8E02B
:101040007849086AFFF7A6FAA3E07749086AFFF72C
:10105000A1FA9EE07549086AFFF79CFA99E0744985
:10106000086AFFF797FA94E0002740217148FFF7DC
:1010700016FF0546012020EA05056F4800786F49F4
:10108000097840EA41006E49097840EA81006D49DB
:10109000097840EAC1006C49097840EA01106B49BF
:1010A000097840EA411040EA85173846FFF762FAAE
:1010B0006FE00020FFF75EFA6BE065498878FFF784
:1010C00059FA66E062494878FFF754FA61E06148EE
:1010D000407F10BB6048007BF8B95E4988680021FA
:1010E000FFF778F814D25B4881685C48FFF704F892
:1010F00080465B49FFF700F805462846FFF73CF8B5
:1011000007B2781EC04307B23846FFF733FA08E04B
:1011100050498868FFF73EFA03E047F6FF70FFF793
:1011200029FA36E000254F48FFF7B6FE00F0F00040
:101130004D49086008460068001108604948FFF7FB
:10114000ABFE00F00F0048498860084601680F2098
:10115000884345498968C94360F31F110D4600F073
:1011600041FE2C484078F02802D145F440750CE04F
:1011700028484078782802D145F4007505E02548D4
:1011800040784B2801D145F480752846FFF7F2F9E5
:1011900000BF00BF204890F87800401C1E4981F82D
:1011A0007800084690F87800401C81F87800601CB0
:1011B000C4B2194890F87B001749B1F87C10084474
:1011C000A0423FF729AF144890F87810FFF784F950
:1011D00086B2114991F878100F4A565431121046D0
:1011E00090F87800401C1154104690F87800401C8C
:1011F000114681F87800002405E00749085D00F0F9
:101200006BF9601CC4B2044890F87800A042F4DA8C
:10121000BDE8F08154090020E80600203333534034
:1012200088040020300400205C0400200404002016
:10123000D803002000000C40640300206C03002051
:101240007403002024050020180500200C05002050
:10125000850300200406002030060020000080BF27
:101260000000C84200800A409005002010B5534895
:1012700090F87A00032806D006282AD0102850D0EB
:10128000112825D17AE04D4840794C49097940EA46
:1012900001204A49A1F87C00002004E00021474ACF
:1012A0001154411CC8B2454991F879108142F5DAD0
:1012B0000020424981F8780081F88200C1F890004E
:1012C00000213E4880F8951080F89410FFF71AFE30
:1012D00071E001203949A1F87C00042081F87800F0
:1012E00000F0C8FEFFF732F9002004E00021334A85
:1012F0001154411CC8B2314991F879108142F5DA94
:1013000000202E4981F8780081F88200C1F8900011
:1013100000212A4880F8951080F89410FFF7F2FD1C
:1013200049E02649087900EBD0714910234AA2F818
:101330007C100520114681F8780000F09BFEFFF735
:1013400005F9002004E000211C4A1154411CC8B2D8
:101350001A4991F879108142F5DA0020174981F88D
:10136000780081F88200C1F890000021134880F8CD
:10137000951080F89410FFF7C5FD1CE0002004E0F4
:1013800000210E4A1154411CC8B20C4991F8791041
:101390008142F5DA0020094981F8780081F882005D
:1013A000C1F890000021054880F8951080F894104D
:1013B000FFF7A8FD00BF00BF10BD0000E806002039
:1013C00010B5434890F8820001287FD1404890F83A
:1013D000950001287AD13E4800783E490978884234
:1013E00054D13B4840783A4981F87A000846C078A1
:1013F000897840EA0120364981F87B00084690F858
:101400007810FFF769F808B9012000E000203049A2
:1014100081F88000084690F8780081F87900084645
:1014200090F88000012801D1FFF720FF0020284913
:1014300081F88000084690F8790091F87810884289
:1014400003DD234890F8790002E0214890F8780005
:101450001F4981F87900002004E000211C4A115442
:10146000411CC8B21A4991F879108142F5DA00207E
:10147000174981F8780081F88200C1F890000021B6
:10148000134880F8951080F8941019E0002004E0CB
:1014900000210F4A1154411CC8B20D4991F879102E
:1014A0008142F5DA00200A4981F8780081F882004B
:1014B000C1F890000021064880F8951080F894103B
:1014C0000020034900E001E081F8790010BD000030
:1014D000E80600205409002010B5044610480068B2
:1014E0004FF6E071084040F080000D49086000BFF1
:1014F00080210C4800F026FD0128F9D12146094839
:1015000000F098FD00BF0821064800F01BFD0128EF
:10151000F9D00348006820F09F000149086010BD21
:1015200000000B40000003400149086070470000C4
:101530008800404210B502460C4BD86820F00300EA
:101540001043D860586820F4706040EA0120586069
:10155000074B1B6843B10123054C241D2360002366
:10156000034C883CC4F88C3010BD000000000240E1
:101570008800404238B50020009000BF212000F0D4
:1015800069F905460098401C00900098B0F5C06FBE
:1015900001D2002DF2D0212000F05CF908B1012425
:1015A00000E00024204638BD014908607047000073
:1015B000880140420146044AD06820F0F00040EA29
:1015C0000110D06070470000000002400146034A4D
:1015D000D06820F440700843D0607047000002409B
:1015E0002DE9FC4F0146DFF864B2DBF80CB00BF0DC
:1015F000020BBBF1000F01D0954B00E0944BDFF8DC
:101600004CB2DBF80CB00BF0010BBBF1000F00D0BB
:101610005B081C46DFF834B2DBF80CB00BF0040BAF
:10162000BBF1000F0DD0DFF824B2DBF804B0CBF330
:10163000032B0BF1010BCDF800B0DDF800B004FB7B
:101640000BF4DFF808B2DBF80CB0CBF3012BBBF1E5
:10165000000F06D0BBF1010F08D0BBF1020F28D15B
:1016600022E0DFF8ECB1C1F800B027E0DFF8DCB130
:10167000DBF80CB04FF0080E0EEA1B1BBBF1000F9D
:1016800001D1A0460DE0DFF8C4B1DBF80CB0CBF31C
:10169000021B0BF1010B4FF0010E0EFA0BFEB4FB17
:1016A000FEF8C1F8008009E04FF4004BC1F800B02B
:1016B00004E049F6404BC1F800B000BF00BFDFF8BE
:1016C0008CB1DBF810B00BF0020BBBF1000F01D0B6
:1016D0005F4D00E05E4DDFF874B1DBF810B00BF049
:1016E000010BBBF1000F00D06D082F46DFF85CB195
:1016F000DBF810B00BF0040BBBF1000F0DD0DFF8DE
:101700004CB1DBF804B0CBF3031B0BF1010BCDF8AC
:1017100000B0DDF800B007FB0BF7B946DFF82CB1DD
:10172000DBF810B00BF0100BBBF1000F01D04FEA4B
:101730005909C1F80490DFF814B1DBF818B04FEA8A
:101740001B1000F0080BBBF1000F02D1DFF800C145
:101750000BE000F0070B0BF1010B4FF0010E0EFA3E
:101760000BF0DFF8ECB0BBFBF0FCC1F80CC0DFF80D
:10177000DCB0DBF8180000F0080BBBF1000F04D15F
:10178000DFF8CCB0CDF804B00DE000F0070B0BF1A2
:10179000010B4FF0010E0EFA0BF0DFF8B4B0BBFBFB
:1017A000F0FBCDF804B0DDF804B0C1F810B0DFF8FC
:1017B0009CB0DBF814B00BF0030BBBF1000F06D0AC
:1017C000BBF1010F05D0BBF1020F06D103E01E46AD
:1017D00005E02E4603E0264601E03E4600BF00BF7E
:1017E000DFF868B0DBF814B0CBF3011BBBF1000FDE
:1017F00006D0BBF1010F06D0BBF1020F08D105E006
:101800004FF4004206E049F6404203E0324601E070
:10181000624600BF00BFDFF834B0DBF814B04FEA17
:101820001B2000F0080BBBF1000F01D1924609E02C
:1018300000F0070B0BF1010B4FF0010E0EFA0BF04D
:10184000B2FBF0FAC1F808A0BDE8FC8F000002402E
:1018500000127A0010B5014601F0E003202B02D1FE
:10186000074B1A6801E0074BDA6B01F01F040123F4
:10187000A34013400BB1012000E0002010BD000088
:101880000000024000800D400D49896821F00301ED
:101890000B4A9160012802D002280ED106E00849C7
:1018A000896841F00101064A916007E004498968AE
:1018B00041F00301024A916000E000BF00BF7047A1
:1018C0000000024038B50020009000BF2220FFF742
:1018D000C1FF05460098401C00900098B0F5C06F0D
:1018E00001D2002DF2D02220FFF7B4FF08B101246D
:1018F00000E00024204638BD29B1064AD2690243DF
:10190000044BDA6104E0034AD2698243014BDA6195
:10191000704700000000024010B5FEF7CBFE04281F
:1019200009D10748FEF713FE05484079012806D182
:101930000349087303E0002001490873086010BDE3
:101940003006002010B504462078012804D105484F
:101950006168FFF7BBFA03E002486168FFF7A8FA85
:1019600010BD000000800C4070B50446607F012867
:101970003ED0FEF709FFA1786054A078205C1F4993
:101980008978C9008840A1880843A080A0780128F0
:1019900029D1A08800F47840B0F5784F01D001201B
:1019A00000E000202073207B18B9A088C043401CB1
:1019B000A080207B40B9A1884842FEF7CFFB0546B6
:1019C0002169FEF799FB06E0A088FEF7D0FB0546EB
:1019D0002169FEF791FBA0600949A0688866002094
:1019E000A080A07008E0A078401CC0B2A07003E006
:1019F0000448A0600249886670BD0000040600200B
:101A0000900500200000C84130B5204CE46804F087
:101A10000204022C01D11E4800E01D481B4CE46862
:101A200004F0010404B140080146184CE46804F0D5
:101A30000404042C05D1154C6468C4F30324631C0E
:101A40005943124CE468C4F3012424B1012C06D09C
:101A5000022C13D10DE00E4C0E4D2C6013E00B4CFC
:101A6000E468C4F30314641CB1FBF4F2094C226073
:101A700009E04FF40044074D2C6004E049F640446F
:101A8000044D2C6000BF00BF30BD000000000240CC
:101A900000127A008803002000B510200749C861B1
:101AA0000020C860486088600861486188610862F9
:101AB00048628862C862FFF7A7FF00BD00000240CD
:101AC0000246104B586A104B9A4205D120F0FF0095
:101AD000084340F0807012E00C4B9A4206D120F48B
:101AE0007F4040EA012040F0007008E0084B9A4235
:101AF00005D120F47F0040EA014040F08060014BB6
:101B00005862704700000240000007400080074014
:101B100000000840CA43426570470A46C16812B1D6
:101B200041F0010101E021F00101C160704730B5D1
:101B30000C8804604C8844608C888460CC880D8953
:101B40002C444D892C448D892C44CD896319C36064
:101B50004C8A0D8A04EB05148D8A2C44CD8A6219B7
:101B6000026530BD0021018041808180C1800181FA
:101B700041818181C181018241828182C18270471C
:101B80000021C16001604160816001624162816247
:101B9000C162016341638163C1630166416681661D
:101BA000C166016141618161C1610167416781670E
:101BB000C167016441648164C164016541658165F7
:101BC000C165704710B51346826D0BB10A4300E042
:101BD0008A43826510BD000010B540213648FFF7EA
:101BE0005EF90446012020EA04042CB34021334866
:101BF000FFF76CF932488078012803D10020FEF706
:101C0000F3FC03E040F6FF70FEF7EEFC01202D49E7
:101C100008702D4908702D4908702A48FFF792FE78
:101C20002948FFF78FFE2948FFF78CFE002028493E
:101C30000870284908701CE040212048FFF738F957
:101C400000202049087020490870204908701D486C
:101C5000FFF778FE1C48FFF775FE1C48FFF772FE81
:101C600001201B4908701B49087080211348FFF7A9
:101C70002DF913484078012811D1174800684FF614
:101C8000E071084040F48070134908600120134956
:101C900081F8700080210948FFF70AF90AE00E4830
:101CA000006840F21F1188430B49086000200B496F
:101CB00081F8700010BD000000000C4000800C4056
:101CC00085030020640300206C03002074030020BF
:101CD000A0030020BC03002000000B409005002062
:101CE00010B502211B48FFF715FF1B48FEF72FFC1C
:101CF0001A48FEF72CFC1A48FEF729FC1948FEF793
:101D000026FC1948FEF723FC1848FEF720FC17486C
:101D10000C30FEF71CFC1648FEF719FC1548FEF7C0
:101D200077FE1548FEF774FE1448FEF70DFB1448C5
:101D3000FEF70AFB1348FEF707FB1348FEF704FB08
:101D40001248FEF701FB1248FEF7FEFA1148FEF7B3
:101D5000FBFA10BD0000074078050020A805002010
:101D600048050020540500206005002040060020A2
:101D700078070020A0030020BC030020B40400204A
:101D8000D803002004040020300400205C0400205C
:101D900088040020E004002010B502210C48FFF761
:101DA000B9FEBFF36F8F0B4800F046F90A4800F008
:101DB00043F90A48007F48B9094800F03DF908484E
:101DC0000078012802D101210448017710BD0000EC
:101DD0000080074024050020180500209005002001
:101DE0000C05002010B51D49086A1D49FEF7FCF9D5
:101DF00007D8F0241B491C484161F0201A4948705B
:101E000026E01649086A1949FEF7EEF90DD813497C
:101E1000086A1749FEF7DEF907D8782415491248F1
:101E2000416178201049487012E00C49086A00218D
:101E3000FEF7DAF90CD80949086A0C49FEF7CAF925
:101E400006D84B240C49084841614B20064948708C
:101E500005484169C162204610BD0000E004002031
:101E60000AD7134000002041540900200AD7933FAD
:101E70005EBA11400000A0400000484010B510219B
:101E8000174800F067F8012828D11021144800F005
:101E900049F8134800F0CAF8124991F87810114A2D
:101EA0005054104690F87800782804D1002011464C
:101EB00081F8780006E00B4890F87800401C09494A
:101EC00081F878000120074981F882000121054846
:101ED00080F8941000200349C1F8900010BD000064
:101EE00000000340E806002002460B4B986A0B4BAB
:101EF0009A4205D140F0807020F0FF00084308E0CE
:101F0000074B9A4205D140F0007020F47F4040EA30
:101F10000120014B9862704700000240000003401E
:101F200000800340426C0A434264704721B1026B57
:101F300042F00102026304E0026B4FF6FE731A40A6
:101F400002637047024693690B400BB1012000E029
:101F5000002070470246136C0B400BB1012000E0DB
:101F6000002070471AB1836B0B43836302E0836BDD
:101F70008B438363704700002DE9F04F87B0044620
:101F80000D4601A8FFF72CFB019F2548866A2548CE
:101F9000844206D106F0070101208840B7FBF0F724
:101FA00008E02148844205D1C6F30221012088407F
:101FB000B7FBF0F728688008B7FBF0F94FEA9918EB
:101FC00009F03F0AB8000AEB8811B0FBF1F0069067
:101FD00029680698401AC001B0FBF1FBBBF1020F63
:101FE00002DC1BF1020F03DA002007B0BDE8F08F1E
:101FF000C4F82480C4F828A0E66AA888E9880843C1
:1020000029890843698908430643E662266B4FF62F
:1020100080708643A889064326630120E5E7000017
:1020200000000240000003400080034001460868B1
:1020300080B27047016070470D4909784906090E62
:102040000B4A11701146097801F0070111704168BF
:1020500009688268114009B1012100E00021017086
:102060000178034A12781143014A11707047000049
:1020700084030020254991F87B003DE0082804D026
:10208000092811D00A282DD11DE0204991F8781097
:10209000491C1E4A515C92F878201C4B9A5C41EA1C
:1020A00002211B4A11701DE0184991F87810491C53
:1020B000164A515C92F87820144B9A5C41EA02214E
:1020C000134A51700EE0114991F87810491C0F4ADB
:1020D000515C92F878200D4B9A5C41EA02210C4A3F
:1020E000917000BF00BF094991F87810891C074A18
:1020F00082F87810411CC8B2044991F87B10034A59
:10210000B2F87C2011448142B8DC7047E806002018
:102110008503002000280DDB00BF00BF00F01F0278
:10212000012191404209920002F1E022C2F800111F
:1021300000BF00BF7047000010B5002804DB4A074D
:10214000130E054A135406E04A07140E034A00F022
:102150000F031B1FD45410BD00E400E018ED00E095
:1021600002E008C8121F08C1002AFAD17047704760
:10217000002001E001C1121F002AFBD170470000BE
:1021800000B591B001214FF08170FFF7B5FB6846B3
:10219000FEF7AAFEBF20ADF8000000208DF80A006F
:1021A00069461948FEF794FD00200A900B900C90A8
:1021B0000D900E900F9010900AA8FEF76DF9002078
:1021C0008DF80C004FF44050ADF8220000208DF83F
:1021D0000D00ADF80E008DF8100005900720099055
:1021E0000020ADF81800ADF81A00ADF81C00ADF8ED
:1021F0001E008DF8200003A8FEF76EF80120FEF700
:1022000051F811B000BD000000000C400EB50121D6
:102210004FF00170FFF770FB6846FEF765FE012086
:10222000ADF8000000208DF80A0069460648FEF768
:102230004FFD0020FEF7CEF90120FEF7BDF940F674
:10224000FF70FEF7D1F90EBD00800C40012105485A
:1022500080F8201000BF034890F820000028FAD131
:10226000704700003006002010B501210820FFF75C
:1022700043FB1820FEF711F810BD000000B585B033
:1022800001211E48FFF738FB02A8FEF72DFE0020B3
:102290008DF80B008DF80C0001208DF80D008DF8E5
:1022A0000E0003208DF8110001208DF8120003208C
:1022B000ADF8080002208DF8100001208DF80A000A
:1022C0008DF80E0002A90E48FEF702FDFEF744FA53
:1022D0002720009000208DF804006846FEF75AFA87
:1022E0000120FEF72BFA00213220FEF753FBE120FC
:1022F000FEF75AFBFEF760FB05B000BD000480004E
:1023000000800B4010B500210F20FFF715FF0F20B4
:10231000FFF700FF01210E20FFF70EFF0E20FFF751
:10232000F9FE02210620FFF707FF0620FFF7F2FE65
:1023300010BD0000FEF74EFB00BF14480068BF2828
:10234000FBD101201249087109E0002011490870F1
:10235000AA204870022010490870AA2048700C4832
:1023600000790128F1D001200A490870FF20487047
:10237000012009490870FF20487005E0FFF72CFC98
:10238000FFF7CAFAFFF71CF8F8E700008003002007
:1023900078050020A0030020BC0300200EB5012119
:1023A0004806FFF7A9FA01214807FFF7A5FA01211E
:1023B0004805FFF7A1FA01218805FFF79DFA0121E1
:1023C000C805FFF799FA01210806FFF795FAFF20E3
:1023D000ADF8000000208DF802008DF80800012003
:1023E0008DF80A008DF8030069462748FEF770FC57
:1023F0004FF4C060ADF8000069462448FEF768FC61
:102400000420ADF8000069462148FEF761FC402039
:10241000ADF8000069461F48FEF75AFCCE20ADF823
:10242000000001208DF8020000208DF80800012036
:102430008DF80A008DF8090069461748FEF748FC38
:102440000F20ADF8000001208DF802006946134806
:10245000FEF73EFC01211148FEF738FD02210F482E
:10246000FEF734FD04210D48FEF730FD08210B482E
:10247000FEF72CFD4FF48070ADF80000694603486C
:10248000FEF726FC0EBD000000800A4000000B4055
:1024900000800B4000000C4000800C4000800E408B
:1024A00010B50120FFF7F0F903E009210220FFF742
:1024B00041F8FFF707FA0128F7D11048C06840F04B
:1024C00002000E49C8600846406840F41060486049
:1024D0000120FFF729F800BFFFF74CF80128FBD1D6
:1024E0000020FFF767F80120FFF75EF84FF48070D7
:1024F000FFF76CF8FFF788FA10BD000000000240FB
:1025000010B56FF002007A49C86041107848016147
:10251000490041616FF00C018161081D7549C86077
:102520004110744801616FF00C01416189108161B3
:1025300008207149486004207049486002207049B1
:10254000486000206F49087010206F4908702020F3
:102550006E49087030206E49087040206D4908703F
:1025600050206D49087070206C4908706C480068F4
:1025700040F21F1188436A4908600020694981F8C8
:10258000700040216848FEF793FC80216648FEF702
:102590008FFC002058490870584908705849087045
:1025A0005548FFF7CFF95548FFF7CCF95448FFF7E6
:1025B000C9F901205D4988705D4852494862524915
:1025C00048625C48514948625149486251494862F1
:1025D0005948514948625149486240F6FF70514993
:1025E000086356484863564888665649D1F88400BF
:1025F000FDF7DBFD4B4981F86C005249D1F88000B2
:10260000FDF7D3FD474981F86D004E49D1F88800A8
:10261000FDF7CBFD434981F86E00012081F86F0082
:10262000002081F85F004AF6C8713E4801620A2026
:102630003C4981F85C00012081F83C0042F22830DE
:1026400041498860012008714AF6C8703F49886096
:10265000012008714FF487703D4988605A203D4938
:10266000886040F246503C4988604FF4E1603B4945
:10267000886046F678103A4988603A492948C1642A
:10268000012181651421C1620020264981F85E0084
:102690000A2035498860012008710921324881618A
:1026A00041624FF07650314908610A212F4881621A
:1026B000012180F824101A482D4948602D494860AE
:1026C0002D482E4948600015294988604010294945
:1026D00088600420294988600020294981F8820007
:1026E00010212748C0F89810FF201649087010BD27
:1026F000A0030020BC030020640300206C03002022
:1027000074030020D80300200404002030040020BB
:102710005C04002088040020B4040020E0040020B1
:1027200000000B409005002000800C408503002035
:10273000020B303C610C463C6740533A0000A0411C
:102740000000C84154090020780500203005002011
:102750003C050020480500205405002060050020AD
:102760006C050020603D08003006002004060020B3
:102770000C0500201805002000800B4024050020D7
:10278000E806002000B587B001218803FFF7B4F800
:102790001248FFF7F5F900211048FFF791F901A859
:1027A000FFF7E0F92B20ADF80600CA20ADF80800CD
:1027B0000020ADF80A00ADF80C00ADF8120001A938
:1027C0000648FFF7B4F9012202210448FFF7FAF99D
:1027D00001210248FFF7A1F907B000BD0000074042
:1027E00000B587B00121C803FFF786F81248FFF74C
:1027F000C7F900211048FFF763F901A8FFF7B2F904
:102800000820ADF80600B120ADF808000020ADF8B2
:102810000A00ADF80C00ADF8120001A90648FFF758
:1028200086F9012202210448FFF7CCF90121024870
:10283000FFF773F907B000BD0080074000B58BB00B
:102840008020ADF8200001208DF8220000208DF8B6
:10285000280001208DF82A008DF8290008A92D48AC
:10286000FEF736FA01218805FFF746F801218805B1
:10287000FFF742F800208DF817008DF818008DF84A
:1028800019008DF81A008DF81B0002208DF81C002D
:1028900003208DF81D0001208DF81E0000208DF80A
:1028A00016004020ADF8140005A91A48FEF710FAEA
:1028B00001208DF816002020ADF8140005A9154858
:1028C000FEF706FA01214020FFF716F80021124812
:1028D000FFF70AFB4FF4164001906020ADF80800A6
:1028E0000020ADF80A00ADF80C00ADF80E004FF472
:1028F0004070ADF8100001A90748FFF73DFB012229
:1029000010210548FFF72EFB01210348FFF70EFBBE
:102910000BB000BD00000B400000034070470000FA
:10292000502900080000002060030000602100081A
:10293000B02C0008600300202C000000602100087B
:10294000DC2C00088C030020B40A00007021000871
:1029500008B5009002E00099491E009100990029F5
:10296000F9D108BD70B502460B46CC48CC4E30615B
:102970003046006800F03800411C012B01D158029C
:1029800000E000200143C6480160426041F4E0706D
:10299000C34E30603046C0683046C0683046C068BC
:1029A0003046C56801F038010160002030619007B1
:1029B000C40EE540E8B270BD70B502460B46B7489C
:1029C000B74E30613046006800F03800411C012BE2
:1029D00001D1580200E000200143B148016042608B
:1029E00041F4E070AE4E30603046C0683046C0689A
:1029F0003046C0683046C56801F0380101600020EB
:102A0000306102F00200C400E540A8B270BD30B5EC
:102A100002460B46A14CA24D2C612C46246804F0C2
:102A20003804611C012B01D15C0200E00024214329
:102A30009B4C2160626041F4E074994D2C602C46FF
:102A4000E4682C46E4682C46E4682C46E06801F013
:102A50003801216000242C6130BD2DE9F04106468B
:102A60000F468E488E4908610846006800F038001D
:102A7000441C012F01D1481500E000200443884880
:102A80000460002522E070198549486000208860B4
:102A900044F48864084604600520FFF759FF44F4B5
:102AA00000547F48046049F64040FFF751FF24F48A
:102AB00080647B4804600520FFF74AFF24F401543A
:102AC000774804600120FFF743FF2D1D102DDAD356
:102AD00004F03804724804600020714908614FF422
:102AE0007A60FFF735FFBDE8F08170B506466B48A8
:102AF0006B4908610846006800F03800441C022E4B
:102B000001D1481500E00020044365480460002519
:102B100022E06348456000206149886044F44464D1
:102B2000084604600520FFF713FF44F400545C4896
:102B3000046049F64040FFF70BFF24F480645848D6
:102B400004606420FFF704FF24F421545448046017
:102B50000120FFF7FDFE2D1D102DDAD304F03804FF
:102B60004F48046000204E4908614FF47A60FFF737
:102B7000EFFE70BD2DE9F04105460E461746474869
:102B8000474908610846006800F0380444F0010431
:102B9000012E01D1481500E00020044340480460A4
:102BA0004560876044F4825404600520FFF7D0FE3E
:102BB00044F400543A4804600A20FFF7C9FE44F088
:102BC0008004374804602820FFF7C2FE24F0800408
:102BD0003348046024F4805404600520FFF7B8FEF5
:102BE00024F401542E4804600120FFF7B1FE04F0E4
:102BF00038002B49086000200861BDE8F0812DE90C
:102C0000F047054688461446A807C70EBC40FF207B
:102C100000FA07F641462846FFF7F9FE814629EA01
:102C2000060004EA060140EA010241462846FFF791
:102C3000A1FFBDE8F0872DE9F04705468846144618
:102C400005F00200C700BC404FF6FF7000FA07F61F
:102C500041462846FFF7DBFE814629EA060004EAE2
:102C6000060140EA010241462846FFF783FFBDE81E
:102C7000F0870CB500BF4FF000600521019107E01F
:102C80000199890050F8211000910199491E019184
:102C900001990029F4D100BF0CBD00005155AA8A4A
:102CA0000080014001490860704700000080014039
:102CB0000000000000000000000000000000000014
:102CC0000000000000000000000000000000000004
:0C2CD000000000000000000000127A006C
:04000005080000C12E
:00000001FF
